{
  "_format": "hh-sol-artifact-1",
  "contractName": "PoolFactory",
  "sourceName": "contracts/core/PoolFactory.sol",
  "abi": [
    {
      "inputs": [],
      "stateMutability": "nonpayable",
      "type": "constructor"
    },
    {
      "anonymous": false,
      "inputs": [
        {
          "indexed": true,
          "internalType": "address",
          "name": "previousOwner",
          "type": "address"
        },
        {
          "indexed": true,
          "internalType": "address",
          "name": "newOwner",
          "type": "address"
        }
      ],
      "name": "OwnershipTransferred",
      "type": "event"
    },
    {
      "anonymous": false,
      "inputs": [
        {
          "indexed": false,
          "internalType": "uint256",
          "name": "poolId",
          "type": "uint256"
        },
        {
          "indexed": false,
          "internalType": "address",
          "name": "poolAddress",
          "type": "address"
        },
        {
          "indexed": false,
          "internalType": "uint256",
          "name": "floor",
          "type": "uint256"
        },
        {
          "indexed": false,
          "internalType": "uint256",
          "name": "ceiling",
          "type": "uint256"
        },
        {
          "indexed": false,
          "internalType": "contract IERC20Metadata",
          "name": "underlyingToken",
          "type": "address"
        },
        {
          "indexed": false,
          "internalType": "contract IReferenceLendingPools",
          "name": "referenceLendingPools",
          "type": "address"
        },
        {
          "indexed": false,
          "internalType": "contract IPremiumCalculator",
          "name": "premiumCalculator",
          "type": "address"
        }
      ],
      "name": "PoolCreated",
      "type": "event"
    },
    {
      "inputs": [
        {
          "internalType": "bytes32",
          "name": "_salt",
          "type": "bytes32"
        },
        {
          "components": [
            {
              "internalType": "uint256",
              "name": "leverageRatioFloor",
              "type": "uint256"
            },
            {
              "internalType": "uint256",
              "name": "leverageRatioCeiling",
              "type": "uint256"
            },
            {
              "internalType": "uint256",
              "name": "leverageRatioBuffer",
              "type": "uint256"
            },
            {
              "internalType": "uint256",
              "name": "minRequiredCapital",
              "type": "uint256"
            },
            {
              "internalType": "uint256",
              "name": "curvature",
              "type": "uint256"
            },
            {
              "internalType": "uint256",
              "name": "minCarapaceRiskPremiumPercent",
              "type": "uint256"
            },
            {
              "internalType": "uint256",
              "name": "underlyingRiskPremiumPercent",
              "type": "uint256"
            },
            {
              "internalType": "uint256",
              "name": "minProtectionDurationInSeconds",
              "type": "uint256"
            },
            {
              "components": [
                {
                  "internalType": "uint256",
                  "name": "openCycleDuration",
                  "type": "uint256"
                },
                {
                  "internalType": "uint256",
                  "name": "cycleDuration",
                  "type": "uint256"
                }
              ],
              "internalType": "struct PoolCycleParams",
              "name": "poolCycleParams",
              "type": "tuple"
            },
            {
              "internalType": "uint256",
              "name": "protectionExtensionGracePeriodInSeconds",
              "type": "uint256"
            }
          ],
          "internalType": "struct PoolParams",
          "name": "_poolParameters",
          "type": "tuple"
        },
        {
          "internalType": "contract IERC20Metadata",
          "name": "_underlyingToken",
          "type": "address"
        },
        {
          "internalType": "contract IReferenceLendingPools",
          "name": "_referenceLendingPools",
          "type": "address"
        },
        {
          "internalType": "contract IPremiumCalculator",
          "name": "_premiumCalculator",
          "type": "address"
        },
        {
          "internalType": "string",
          "name": "_name",
          "type": "string"
        },
        {
          "internalType": "string",
          "name": "_symbol",
          "type": "string"
        }
      ],
      "name": "createPool",
      "outputs": [
        {
          "internalType": "address",
          "name": "",
          "type": "address"
        }
      ],
      "stateMutability": "nonpayable",
      "type": "function"
    },
    {
      "inputs": [],
      "name": "getDefaultStateManager",
      "outputs": [
        {
          "internalType": "contract IDefaultStateManager",
          "name": "",
          "type": "address"
        }
      ],
      "stateMutability": "view",
      "type": "function"
    },
    {
      "inputs": [
        {
          "internalType": "uint256",
          "name": "_poolId",
          "type": "uint256"
        }
      ],
      "name": "getPoolAddress",
      "outputs": [
        {
          "internalType": "address",
          "name": "",
          "type": "address"
        }
      ],
      "stateMutability": "view",
      "type": "function"
    },
    {
      "inputs": [],
      "name": "getPoolCycleManager",
      "outputs": [
        {
          "internalType": "contract IPoolCycleManager",
          "name": "",
          "type": "address"
        }
      ],
      "stateMutability": "view",
      "type": "function"
    },
    {
      "inputs": [],
      "name": "owner",
      "outputs": [
        {
          "internalType": "address",
          "name": "",
          "type": "address"
        }
      ],
      "stateMutability": "view",
      "type": "function"
    },
    {
      "inputs": [],
      "name": "renounceOwnership",
      "outputs": [],
      "stateMutability": "nonpayable",
      "type": "function"
    },
    {
      "inputs": [
        {
          "internalType": "address",
          "name": "newOwner",
          "type": "address"
        }
      ],
      "name": "transferOwnership",
      "outputs": [],
      "stateMutability": "nonpayable",
      "type": "function"
    }
  ],
  "bytecode": "0x60c060405234801561001057600080fd5b5061001a3361009e565b604051610026906100f7565b604051809103906000f080158015610042573d6000803e3d6000fd5b506001600160a01b031660805260405161005b90610105565b604051809103906000f080158015610077573d6000803e3d6000fd5b506001600160a01b031660a05261009960016100ee602090811b6105b517901c565b610113565b600080546001600160a01b038381166001600160a01b0319831681178455604051919092169283917f8be0079c531659141344cd1fd0a4f28419497f9722a3daafe3b4186f6b6457e09190a35050565b80546001019055565b61073680620058c583390190565b611a468062005ffb83390190565b60805160a05161577162000154600039600081816101310152818161020b015261039101526000818160d5015281816101ea01526102fd01526157716000f3fe60806040523480156200001157600080fd5b5060043610620000865760003560e01c80638da5cb5b11620000625780638da5cb5b1462000106578063cd28ae5d1462000118578063e52f6337146200012f578063f2fde38b146200015657600080fd5b8062a5ae21146200008b57806362c3eaed14620000d3578063715018a614620000fa575b600080fd5b620000b76200009c36600462000685565b6000908152600260205260409020546001600160a01b031690565b6040516001600160a01b03909116815260200160405180910390f35b7f0000000000000000000000000000000000000000000000000000000000000000620000b7565b620001046200016d565b005b6000546001600160a01b0316620000b7565b620000b76200012936600462000713565b62000185565b7f0000000000000000000000000000000000000000000000000000000000000000620000b7565b6200010462000167366004620007f6565b6200051b565b62000177620005be565b6200018360006200061a565b565b600062000191620005be565b60006200019d60015490565b905060008b6040518060a001604052808481526020018d803603810190620001c69190620008b5565b81526001600160a01b03808e1660208301528c1660408201526060016000815250897f00000000000000000000000000000000000000000000000000000000000000007f00000000000000000000000000000000000000000000000000000000000000008b8b8b8b6040516200023c9062000677565b6200024f98979695949392919062000992565b8190604051809103906000f590508015801562000270573d6000803e3d6000fd5b506000838152600260205260409020805473ffffffffffffffffffffffffffffffffffffffff19166001600160a01b03831617905560018054810190559050806040517f2e1bc98f000000000000000000000000000000000000000000000000000000008152600481018490526101008d013560248201526101208d013560448201526001600160a01b037f00000000000000000000000000000000000000000000000000000000000000001690632e1bc98f90606401600060405180830381600087803b1580156200034257600080fd5b505af115801562000357573d6000803e3d6000fd5b50506040517fabd908460000000000000000000000000000000000000000000000000000000081526001600160a01b0385811660048301527f000000000000000000000000000000000000000000000000000000000000000016925063abd908469150602401600060405180830381600087803b158015620003d857600080fd5b505af1158015620003ed573d6000803e3d6000fd5b505050507fdcc493ea851dd3c975b7bcc26c22290d453e4a0ffc64283cadaf08cb49dfb66183828e600001358f602001358f8f8f6040516200046d97969594939291909687526001600160a01b0395861660208801526040870194909452606086019290925283166080850152821660a08401521660c082015260e00190565b60405180910390a1816001600160a01b031663f2fde38b620004976000546001600160a01b031690565b6040517fffffffff0000000000000000000000000000000000000000000000000000000060e084901b1681526001600160a01b039091166004820152602401600060405180830381600087803b158015620004f157600080fd5b505af115801562000506573d6000803e3d6000fd5b50929f9e505050505050505050505050505050565b62000525620005be565b6001600160a01b038116620005a75760405162461bcd60e51b815260206004820152602660248201527f4f776e61626c653a206e6577206f776e657220697320746865207a65726f206160448201527f646472657373000000000000000000000000000000000000000000000000000060648201526084015b60405180910390fd5b620005b2816200061a565b50565b80546001019055565b6000546001600160a01b03163314620001835760405162461bcd60e51b815260206004820181905260248201527f4f776e61626c653a2063616c6c6572206973206e6f7420746865206f776e657260448201526064016200059e565b600080546001600160a01b0383811673ffffffffffffffffffffffffffffffffffffffff19831681178455604051919092169283917f8be0079c531659141344cd1fd0a4f28419497f9722a3daafe3b4186f6b6457e09190a35050565b614c798062000ac383390190565b6000602082840312156200069857600080fd5b5035919050565b6001600160a01b0381168114620005b257600080fd5b8035620006c2816200069f565b919050565b60008083601f840112620006da57600080fd5b50813567ffffffffffffffff811115620006f357600080fd5b6020830191508360208285010111156200070c57600080fd5b9250929050565b6000806000806000806000806000898b036102208112156200073457600080fd5b8a359950610160601f19820112156200074c57600080fd5b5060208a0197506101808a013562000764816200069f565b96506101a08a013562000777816200069f565b9550620007886101c08b01620006b5565b94506101e08a013567ffffffffffffffff80821115620007a757600080fd5b620007b58d838e01620006c7565b90965094506102008c0135915080821115620007d057600080fd5b50620007df8c828d01620006c7565b915080935050809150509295985092959850929598565b6000602082840312156200080957600080fd5b813562000816816200069f565b9392505050565b604051610140810167ffffffffffffffff811182821017156200085057634e487b7160e01b600052604160045260246000fd5b60405290565b6000604082840312156200086957600080fd5b6040516040810181811067ffffffffffffffff821117156200089b57634e487b7160e01b600052604160045260246000fd5b604052823581526020928301359281019290925250919050565b60006101608284031215620008c957600080fd5b620008d36200081d565b823581526020830135602082015260408301356040820152606083013560608201526080830135608082015260a083013560a082015260c083013560c082015260e083013560e08201526101006200092e8582860162000856565b90820152610140929092013561012083015250919050565b600381106200096557634e487b7160e01b600052602160045260246000fd5b9052565b81835281816020850137506000828201602090810191909152601f909101601f19169091010190565b60006102808a51835260208b015180516020850152602081015160408501526040810151606085015260608101516080850152608081015160a085015260a081015160c085015260c081015160e085015260e081015161010081818701528083015191505061012062000a118187018380518252602090810151910152565b91909101516101608501525060408b01516001600160a01b0390811661018085015260608c0151166101a084015260808b015162000a546101c085018262000946565b506001600160a01b038a166101e08401526001600160a01b0389166102008401526001600160a01b0388166102208401528061024084015262000a9b818401878962000969565b905082810361026084015262000ab381858762000969565b9b9a505050505050505050505056fe60e06040523480156200001157600080fd5b5060405162004c7938038062004c798339810160408190526200003491620004b8565b8181818181600390805190602001906200005092919062000268565b5080516200006690600490602084019062000268565b50506009805460ff19169055506200007e336200020e565b7fd0a8437f3bcd4a876272af7a7cf0ca48396f581a8b59d66774fea6deb61de3978282604051620000b192919062000687565b60405180910390a150506001600a558551600b9081556020808801518051600c5580820151600d55604080820151600e55606080830151600f5560808084015160105560a084015160115560c084015160125560e084015160135561010084015180516014559094015160155561012090920151601655890151601780546001600160a01b03199081166001600160a01b0393841617909155918a015160188054938416919092169081178255928a01518a949390926001600160a81b03191617600160a01b8360028111156200018c576200018c620006b9565b021790555050506001600160a01b0380861660805284811660a05283811660c0526017546018546040517f70275c2b1d7c8221ef92016ee3f4621d95674b3b9fa29514d1da279867775a9e93620001ed9387938793918316921690620006cf565b60405180910390a15050601d80546001018155600052506200075992505050565b600980546001600160a01b03838116610100818102610100600160a81b031985161790945560405193909204169182907f8be0079c531659141344cd1fd0a4f28419497f9722a3daafe3b4186f6b6457e090600090a35050565b82805462000276906200071d565b90600052602060002090601f0160209004810192826200029a5760008555620002e5565b82601f10620002b557805160ff1916838001178555620002e5565b82800160010185558215620002e5579182015b82811115620002e5578251825591602001919060010190620002c8565b50620002f3929150620002f7565b5090565b5b80821115620002f35760008155600101620002f8565b634e487b7160e01b600052604160045260246000fd5b60405160a081016001600160401b03811182821017156200034957620003496200030e565b60405290565b60405161014081016001600160401b03811182821017156200034957620003496200030e565b6000604082840312156200038857600080fd5b604080519081016001600160401b0381118282101715620003ad57620003ad6200030e565b604052825181526020928301519281019290925250919050565b80516001600160a01b0381168114620003df57600080fd5b919050565b805160038110620003df57600080fd5b60005b8381101562000411578181015183820152602001620003f7565b8381111562000421576000848401525b50505050565b600082601f8301126200043957600080fd5b81516001600160401b03808211156200045657620004566200030e565b604051601f8301601f19908116603f011681019082821181831017156200048157620004816200030e565b816040528381528660208588010111156200049b57600080fd5b620004ae846020830160208901620003f4565b9695505050505050565b600080600080600080868803610280811215620004d457600080fd5b6101e080821215620004e557600080fd5b620004ef62000324565b8951815261016080601f19850112156200050857600080fd5b620005126200034f565b935060208b0151845260408b0151602085015260608b0151604085015260808b0151606085015260a08b0151608085015260c08b015160a085015260e08b015160c0850152610100808c015160e0860152610120620005748e828f0162000375565b82870152828d015181870152505050826020820152620005986101808b01620003c7565b6040820152620005ac6101a08b01620003c7565b6060820152620005c06101c08b01620003e4565b60808201529750620005d4898201620003c7565b96505050620005e76102008801620003c7565b9350620005f86102208801620003c7565b6102408801519093506001600160401b03808211156200061757600080fd5b620006258a838b0162000427565b93506102608901519150808211156200063d57600080fd5b506200064c89828a0162000427565b9150509295509295509295565b6000815180845262000673816020860160208601620003f4565b601f01601f19169290920160200192915050565b6040815260006200069c604083018562000659565b8281036020840152620006b0818562000659565b95945050505050565b634e487b7160e01b600052602160045260246000fd5b608081526000620006e4608083018762000659565b8281036020840152620006f8818762000659565b6001600160a01b03958616604085015293909416606090920191909152509392505050565b600181811c908216806200073257607f821691505b6020821081036200075357634e487b7160e01b600052602260045260246000fd5b50919050565b60805160a05160c0516144d4620007a560003960008181611683015261174e01526000818161071d0152818161086301528181611c2d0152612d5201526000612ec901526144d46000f3fe608060405234801561001057600080fd5b50600436106102f35760003560e01c806370a0823111610191578063a1cfbce9116100e3578063c9a6e6a211610097578063e887ed6511610071578063e887ed65146106a2578063f2fde38b146106b5578063ff7f444e146106c857600080fd5b8063c9a6e6a2146105ea578063d6902fa51461063b578063dd62ed3e1461066957600080fd5b8063a9059cbb116100c8578063a9059cbb146105b1578063b1463a6a146105c4578063b7b856aa146105d757600080fd5b8063a1cfbce914610595578063a457c2d71461059e57600080fd5b8063870b38b111610145578063981b24d01161011f578063981b24d01461055c5780639ee679e81461056f5780639ef987221461058257600080fd5b8063870b38b1146104f45780638da5cb5b1461052b57806395d89b411461055457600080fd5b8063724e204611610176578063724e2046146104d05780638456cb59146104e35780638682c165146104eb57600080fd5b806370a082311461049f578063715018a6146104c857600080fd5b8063395093511161024a5780635aea9de2116101fe5780636ab8b715116101d85780636ab8b715146104515780636d8d9623146104645780636e553f651461048c57600080fd5b80635aea9de2146104295780635c975abb1461043157806360246c881461043c57600080fd5b8063436725fe1161022f578063436725fe146104045780634d21af961461040d5780634ee2cd7e1461041657600080fd5b806339509351146103e95780633f4ba83a146103fc57600080fd5b806314291b64116102ac57806323b872dd1161028657806323b872dd146103b45780632c45dd37146103c7578063313ce567146103da57600080fd5b806314291b641461038357806318160ddd146103995780631dc7f521146103a157600080fd5b806306fdde03116102dd57806306fdde0314610336578063095ea7b31461034b5780631256cc631461036e57600080fd5b8062f714ce146102f857806303d9c1901461030d575b600080fd5b61030b610306366004613add565b6106e8565b005b61032061031b366004613b0d565b610a5e565b60405161032d9190613b2a565b60405180910390f35b61033e610bde565b60405161032d9190613c34565b61035e610359366004613c47565b610c70565b604051901515815260200161032d565b610376610c8a565b60405161032d9190613cab565b61038b610da9565b60405190815260200161032d565b60025461038b565b61038b6103af366004613cb9565b610dbb565b61035e6103c2366004613cd2565b610ee9565b61030b6103d5366004613d7e565b610f0d565b6040516012815260200161032d565b61035e6103f7366004613c47565b611358565b61030b611397565b61038b601c5481565b61038b60195481565b61038b610424366004613c47565b6113a9565b610320611402565b60095460ff1661035e565b61044461155c565b60405161032d9190613e12565b61030b61045f366004613b0d565b61164a565b610477610472366004613b0d565b611740565b6040805192835260208301919091520161032d565b61030b61049a366004613add565b611932565b61038b6104ad366004613b0d565b6001600160a01b031660009081526020819052604090205490565b61030b611ae6565b61030b6104de366004613edc565b611af8565b61030b611b6b565b61038b601a5481565b61038b610502366004613ef4565b6001600160a01b0391821660009081526020808052604080832093909416825291909152205490565b60095461010090046001600160a01b03166040516001600160a01b03909116815260200161032d565b61033e611b7b565b61038b61056a366004613cb9565b611b8a565b61030b61057d366004613cb9565b611bb5565b61030b610590366004613edc565b611d78565b61038b601b5481565b61035e6105ac366004613c47565b611e6c565b61035e6105bf366004613c47565b611f16565b61030b6105d2366004613cb9565b611f24565b61030b6105e5366004613cb9565b611f31565b6106206105f8366004613b0d565b6001600160a01b03166000908152601f60205260409020805460018201546004909201549092565b6040805193845260208401929092529082015260600161032d565b61038b610649366004613cb9565b6000908152601e6020908152604080832033845260010190915290205490565b61038b610677366004613ef4565b6001600160a01b03918216600090815260016020908152604080832093909416825291909152205490565b61038b6106b0366004613cb9565b611f3e565b61030b6106c3366004613b0d565b61207c565b61038b6106d6366004613cb9565b6000908152601e602052604090205490565b600b546040517f1a001593000000000000000000000000000000000000000000000000000000008152600481018290526000907f00000000000000000000000000000000000000000000000000000000000000006001600160a01b031690631a001593906024016020604051808303816000875af115801561076e573d6000803e3d6000fd5b505050506040513d601f19601f820116820180604052508101906107929190613f22565b905060018160028111156107a8576107a8613c73565b146107e7576040517f04a67a33000000000000000000000000000000000000000000000000000000008152600481018390526024015b60405180910390fd5b6107ef61210c565b6002600a54036108415760405162461bcd60e51b815260206004820152601f60248201527f5265656e7472616e637947756172643a207265656e7472616e742063616c6c0060448201526064016107de565b6002600a55600b546040516357c1adc560e11b81526000916001600160a01b037f0000000000000000000000000000000000000000000000000000000000000000169163af835b8a9161089a9160040190815260200190565b602060405180830381865afa1580156108b7573d6000803e3d6000fd5b505050506040513d601f19601f820116820180604052508101906108db9190613f43565b6000818152601e60209081526040808320338452600181019092528220549293509190819003610940576040517f50274ddb000000000000000000000000000000000000000000000000000000008152336004820152602481018490526044016107de565b80871115610983576040517fac75914e000000000000000000000000000000000000000000000000000000008152336004820152602481018290526044016107de565b600061098e88610dbb565b905061099a338961215f565b80601c60008282546109ac9190613f72565b9091555050336000908152600184016020526040812080548a92906109d2908490613f72565b90915550508254889084906000906109eb908490613f72565b9091555050601754610a07906001600160a01b031688836122f0565b60408051338152602081018a90526001600160a01b0389168183015290517f565848cdb1369b8f0e5b0f6eb298a192163a96cf9f692903ec5f14cd2c0b7b659181900360600190a150506001600a55505050505050565b6001600160a01b03811660009081526020805260408120606091600190910190610a878261236c565b90508067ffffffffffffffff811115610aa257610aa2613d13565b604051908082528060200260200182016040528015610adb57816020015b610ac86139ad565b815260200190600190039081610ac05790505b50925060005b81811015610bd6576000610af58483612376565b9050601d8181548110610b0a57610b0a613f89565b60009182526020918290206040805160e081018252600a90930290910180546001600160a01b03908116845260018201548486015260028201548484015260038201546060808601919091526004830154608080870191909152845190810185526005840154909216825260068301549582019590955260078201549281019290925260088101549382019390935260a082015260099091015460ff16151560c08201528551869084908110610bc257610bc2613f89565b602090810291909101015250600101610ae1565b505050919050565b606060038054610bed90613f9f565b80601f0160208091040260200160405190810160405280929190818152602001828054610c1990613f9f565b8015610c665780601f10610c3b57610100808354040283529160200191610c66565b820191906000526020600020905b815481529060010190602001808311610c4957829003601f168201915b5050505050905090565b600033610c7e818585612382565b60019150505b92915050565b6000610c946124da565b601854600160a01b900460ff166000816002811115610cb557610cb5613c73565b148015610cc65750600f54601c5410155b15610d21576018805460ff60a01b1916600160a01b179055600b54604051600193507fab7857a330a475611ec7d33d58ab0a6866e8217be427b99d5154f0f606f96dd691610d15918590613fd3565b60405180910390a15090565b6001816002811115610d3557610d35613c73565b03610da557600d54610d45610da9565b11610da5576018805460ff60a01b191674020000000000000000000000000000000000000000179055600b54604051600293507fab7857a330a475611ec7d33d58ab0a6866e8217be427b99d5154f0f606f96dd691610d15918590613fd3565b5090565b6000610db6601c5461253a565b905090565b600080670de0b6b3a7640000610dcf61256d565b610dd99085613fe7565b610de39190614006565b905073__$71c07f590235b604fcd656680c29ae2e3e$__6373bc03a182600b600c0160009054906101000a90046001600160a01b03166001600160a01b031663313ce5676040518163ffffffff1660e01b8152600401602060405180830381865afa158015610e56573d6000803e3d6000fd5b505050506040513d601f19601f82011682018060405250810190610e7a9190614028565b6040516001600160e01b031960e085901b168152600481019290925260ff166024820152604401602060405180830381865af4158015610ebe573d6000803e3d6000fd5b505050506040513d601f19601f82011682018060405250810190610ee29190613f43565b9392505050565b600033610ef78582856126c3565b610f02858585612755565b506001949350505050565b8051600003610fa457601854604080517f7e54404b00000000000000000000000000000000000000000000000000000000815290516001600160a01b0390921691637e54404b916004808201926000929091908290030181865afa158015610f79573d6000803e3d6000fd5b505050506040513d6000823e601f3d908101601f19168201604052610fa1919081019061404b565b90505b805160005b81811015611353576000838281518110610fc557610fc5613f89565b6020908102919091018101516001600160a01b038082166000818152601f909452604080852060185491517fecf7348f00000000000000000000000000000000000000000000000000000000815260048101939093529395509293929091169063ecf7348f90602401602060405180830381865afa15801561104b573d6000803e3d6000fd5b505050506040513d601f19601f8201168201806040525081019061106f9190613f43565b905060008260000154905061109e6040518060800160405280604c81526020016143e6604c9139858385612977565b60006110ac846002016129d9565b8051909150600090815b818110156112f85760008482815181106110d2576110d2613f89565b602002602001015190506000601d82815481106110f1576110f1613f89565b6000918252602082206040517feb4ace3c000000000000000000000000000000000000000000000000000000008152600b6004820152600a9092020160248201819052604482018a9052606482018b90529250819073__$71c07f590235b604fcd656680c29ae2e3e$__9063eb4ace3c906084016040805180830381865af4158015611181573d6000803e3d6000fd5b505050506040513d601f19601f820116820180604052508101906111a591906140ea565b9150915081601b60008282546111bb9190614116565b9250508190555081601c60008282546111d49190614116565b909155506111e490508288614116565b965080156112e9576007830154601a8054600090611203908490613f72565b90915550506040517fe0c5f2ed0000000000000000000000000000000000000000000000000000000081526020600482015260248101849052604481018c90526064810185905273__$71c07f590235b604fcd656680c29ae2e3e$__9063e0c5f2ed9060840160006040518083038186803b15801561128157600080fd5b505af4158015611295573d6000803e3d6000fd5b505050506005830154835460078501546040519081526001600160a01b0392831692909116907f716744237671421983fbf1e422fc2a3aab01f9da655ec16d8d0ffb48667ba6599060200160405180910390a35b846001019450505050506110b6565b508115611341578486556040518581526001600160a01b038816907f01eec1972235079c8b936fa90c60971e8c30f080d120220b91bd45e082cf7c8c9060200160405180910390a25b87600101975050505050505050610fa9565b505050565b3360008181526001602090815260408083206001600160a01b0387168452909152812054909190610c7e9082908690611392908790614116565b612382565b61139f6124da565b6113a76129e6565b565b6001600160a01b0382166000908152600560205260408120819081906113d0908590612a38565b91509150816113f7576001600160a01b0385166000908152602081905260409020546113f9565b805b95945050505050565b601d54606090611413600182613f72565b67ffffffffffffffff81111561142b5761142b613d13565b60405190808252806020026020018201604052801561146457816020015b6114516139ad565b8152602001906001900390816114495790505b509150600060015b8281101561155657601d818154811061148757611487613f89565b60009182526020918290206040805160e081018252600a90930290910180546001600160a01b03908116845260018201548486015260028201548484015260038201546060808601919091526004830154608080870191909152845190810185526005840154909216825260068301549582019590955260078201549281019290925260088101549382019390935260a082015260099091015460ff16151560c0820152845185908490811061153f5761153f613f89565b60209081029190910101526001918201910161146c565b50505090565b611564613a25565b6040805160a08082018352600b80548352835161014081018552600c548152600d54602080830191909152600e5482870152600f546060808401919091526010546080808501919091526011549584019590955260125460c084015260135460e084015286518088018852601454815260155481840152610100840152601654610120840152908501919091526017546001600160a01b039081169585019590955260185494851690840152919290830190600160a01b900460ff16600281111561163157611631613c73565b600281111561164257611642613c73565b905250919050565b61165261210c565b6040517f779b2a690000000000000000000000000000000000000000000000000000000081523360048201526000907f00000000000000000000000000000000000000000000000000000000000000006001600160a01b03169063779b2a69906024016020604051808303816000875af11580156116d4573d6000803e3d6000fd5b505050506040513d601f19601f820116820180604052508101906116f89190613f43565b9050801561173c5761172560405180606001604052806030815260200161443260309139601c5483612b35565b60175461173c906001600160a01b031683836122f0565b5050565b600080336001600160a01b037f000000000000000000000000000000000000000000000000000000000000000016146117a7576040517f34e20f530000000000000000000000000000000000000000000000000000000081523360048201526024016107de565b6117af61210c565b6117b7612b95565b6001600160a01b0384166000908152601f6020526040812091925060028201906117e08261236c565b905060005b818110156118f75760006117f98483612376565b90506000601d828154811061181057611810613f89565b600091825260208220601854600a90920201805460068201546040517fdf68cecd0000000000000000000000000000000000000000000000000000000081526001600160a01b038f81166004830152928316602482015260448101919091529194509091169063df68cecd90606401602060405180830381865afa15801561189c573d6000803e3d6000fd5b505050506040513d601f19601f820116820180604052508101906118c09190613f43565b600783015490915060008282106118d757826118d9565b815b90506118e5818c614116565b9a5085600101955050505050506117e5565b5084601c54101561191257601c80546000909155945061192a565b84601c60008282546119249190613f72565b90915550505b505050915091565b61193a61210c565b6002600a540361198c5760405162461bcd60e51b815260206004820152601f60248201527f5265656e7472616e637947756172643a207265656e7472616e742063616c6c0060448201526064016107de565b6002600a556001601854600160a01b900460ff1660028111156119b1576119b1613c73565b036119ef57600b546040517f429e8c0600000000000000000000000000000000000000000000000000000000815260048101919091526024016107de565b60006119fa83611f3e565b905082601c6000828254611a0e9190614116565b90915550611a1e90508282612bef565b601754611a36906001600160a01b0316333086612c48565b600f54601c5410611a9a576000611a4b610da9565b600d54909150811115611a9857600b546040517f1288c7730000000000000000000000000000000000000000000000000000000081526004810191909152602481018290526044016107de565b505b604080516001600160a01b0384168152602081018590527ff9f7a3ddf73f96f1cf688388747bf9c1008e6db180d4cbd5f83337dc73908e61910160405180910390a150506001600a5550565b611aee6124da565b6113a76000612c99565b611b0061210c565b6002600a5403611b525760405162461bcd60e51b815260206004820152601f60248201527f5265656e7472616e637947756172643a207265656e7472616e742063616c6c0060448201526064016107de565b6002600a55611b6342826000612d0a565b506001600a55565b611b736124da565b6113a7613257565b606060048054610bed90613f9f565b6000806000611b9a846006612a38565b9150915081611bab57600254611bad565b805b949350505050565b611bbd61210c565b3360009081526020819052604090205480821115611c10576040517f654d08a0000000000000000000000000000000000000000000000000000000008152336004820152602481018290526044016107de565b600b546040516357c1adc560e11b81526000916001600160a01b037f0000000000000000000000000000000000000000000000000000000000000000169163af835b8a91611c649160040190815260200190565b602060405180830381865afa158015611c81573d6000803e3d6000fd5b505050506040513d601f19601f82011682018060405250810190611ca59190613f43565b90506000611cb4826002614116565b6000818152601e60209081526040808320338452600181019092529091208054908790559192509085811115611d0c57611cee8682613f72565b826000016000828254611d019190613f72565b90915550611d2f9050565b611d168187613f72565b826000016000828254611d299190614116565b90915550505b60408051338152602081018890529081018490527f24b91f4f47caf44230a57777a9be744924e82bf666f2d5702faf97df35e60f9f9060600160405180910390a1505050505050565b611d8061210c565b6002600a5403611dd25760405162461bcd60e51b815260206004820152601f60248201527f5265656e7472616e637947756172643a207265656e7472616e742063616c6c0060448201526064016107de565b6002600a556016546040517f9475fc4600000000000000000000000000000000000000000000000000000000815273__$71c07f590235b604fcd656680c29ae2e3e$__91639475fc4691611e3091602091601d918791600401614163565b60006040518083038186803b158015611e4857600080fd5b505af4158015611e5c573d6000803e3d6000fd5b50505050611b6342826001612d0a565b3360008181526001602090815260408083206001600160a01b038716845290915281205490919083811015611f095760405162461bcd60e51b815260206004820152602560248201527f45524332303a2064656372656173656420616c6c6f77616e63652062656c6f7760448201527f207a65726f00000000000000000000000000000000000000000000000000000060648201526084016107de565b610f028286868403612382565b600033610c7e818585612755565b611f2c6124da565b600d55565b611f396124da565b600c55565b60008073__$71c07f590235b604fcd656680c29ae2e3e$__637eead7af84600b600c0160009054906101000a90046001600160a01b03166001600160a01b031663313ce5676040518163ffffffff1660e01b8152600401602060405180830381865afa158015611fb2573d6000803e3d6000fd5b505050506040513d601f19601f82011682018060405250810190611fd69190614028565b6040516001600160e01b031960e085901b168152600481019290925260ff166024820152604401602060405180830381865af415801561201a573d6000803e3d6000fd5b505050506040513d601f19601f8201168201806040525081019061203e9190613f43565b905061204960025490565b6000036120565792915050565b600061206061256d565b612072670de0b6b3a764000084613fe7565b611bad9190614006565b6120846124da565b6001600160a01b0381166121005760405162461bcd60e51b815260206004820152602660248201527f4f776e61626c653a206e6577206f776e657220697320746865207a65726f206160448201527f646472657373000000000000000000000000000000000000000000000000000060648201526084016107de565b61210981612c99565b50565b60095460ff16156113a75760405162461bcd60e51b815260206004820152601060248201527f5061757361626c653a207061757365640000000000000000000000000000000060448201526064016107de565b6001600160a01b0382166121db5760405162461bcd60e51b815260206004820152602160248201527f45524332303a206275726e2066726f6d20746865207a65726f2061646472657360448201527f730000000000000000000000000000000000000000000000000000000000000060648201526084016107de565b6121e782600083613294565b6001600160a01b038216600090815260208190526040902054818110156122765760405162461bcd60e51b815260206004820152602260248201527f45524332303a206275726e20616d6f756e7420657863656564732062616c616e60448201527f636500000000000000000000000000000000000000000000000000000000000060648201526084016107de565b6001600160a01b03831660009081526020819052604081208383039055600280548492906122a5908490613f72565b90915550506040518281526000906001600160a01b038516907fddf252ad1be2c89b69c2b068fc378daa952ba7f163c4a11628f55a4df523b3ef9060200160405180910390a3505050565b6040516001600160a01b0383166024820152604481018290526113539084907fa9059cbb00000000000000000000000000000000000000000000000000000000906064015b60408051601f198184030181529190526020810180516001600160e01b03166001600160e01b0319909316929092179091526132dc565b6000610c84825490565b6000610ee283836133c1565b6001600160a01b0383166123fd5760405162461bcd60e51b8152602060048201526024808201527f45524332303a20617070726f76652066726f6d20746865207a65726f2061646460448201527f726573730000000000000000000000000000000000000000000000000000000060648201526084016107de565b6001600160a01b0382166124795760405162461bcd60e51b815260206004820152602260248201527f45524332303a20617070726f766520746f20746865207a65726f20616464726560448201527f737300000000000000000000000000000000000000000000000000000000000060648201526084016107de565b6001600160a01b0383811660008181526001602090815260408083209487168084529482529182902085905590518481527f8c5be1e5ebec7d5bd14f71427d1e84f3dd0314c0f7b2291e5b200ac8c7c3b925910160405180910390a3505050565b6009546001600160a01b036101009091041633146113a75760405162461bcd60e51b815260206004820181905260248201527f4f776e61626c653a2063616c6c6572206973206e6f7420746865206f776e657260448201526064016107de565b6000601a5460000361254e57506000919050565b601a54612563670de0b6b3a764000084613fe7565b610c849190614006565b60008073__$71c07f590235b604fcd656680c29ae2e3e$__637eead7af601c54600b600c0160009054906101000a90046001600160a01b03166001600160a01b031663313ce5676040518163ffffffff1660e01b8152600401602060405180830381865afa1580156125e3573d6000803e3d6000fd5b505050506040513d601f19601f820116820180604052508101906126079190614028565b6040516001600160e01b031960e085901b168152600481019290925260ff166024820152604401602060405180830381865af415801561264b573d6000803e3d6000fd5b505050506040513d601f19601f8201168201806040525081019061266f9190613f43565b9050600061267c60025490565b9050600081612693670de0b6b3a764000085613fe7565b61269d9190614006565b9050610ee26040518060600160405280603d8152602001614462603d91398484846133eb565b6001600160a01b03838116600090815260016020908152604080832093861683529290522054600019811461274f57818110156127425760405162461bcd60e51b815260206004820152601d60248201527f45524332303a20696e73756666696369656e7420616c6c6f77616e636500000060448201526064016107de565b61274f8484848403612382565b50505050565b6001600160a01b0383166127d15760405162461bcd60e51b815260206004820152602560248201527f45524332303a207472616e736665722066726f6d20746865207a65726f20616460448201527f647265737300000000000000000000000000000000000000000000000000000060648201526084016107de565b6001600160a01b03821661284d5760405162461bcd60e51b815260206004820152602360248201527f45524332303a207472616e7366657220746f20746865207a65726f206164647260448201527f657373000000000000000000000000000000000000000000000000000000000060648201526084016107de565b612858838383613294565b6001600160a01b038316600090815260208190526040902054818110156128e75760405162461bcd60e51b815260206004820152602660248201527f45524332303a207472616e7366657220616d6f756e742065786365656473206260448201527f616c616e6365000000000000000000000000000000000000000000000000000060648201526084016107de565b6001600160a01b0380851660009081526020819052604080822085850390559185168152908120805484929061291e908490614116565b92505081905550826001600160a01b0316846001600160a01b03167fddf252ad1be2c89b69c2b068fc378daa952ba7f163c4a11628f55a4df523b3ef8460405161296a91815260200190565b60405180910390a361274f565b61274f84848484604051602401612991949392919061418d565b60408051601f198184030181529190526020810180516001600160e01b03167ff8f51b1e00000000000000000000000000000000000000000000000000000000179052613449565b60606000610ee28361346a565b6129ee6134c6565b6009805460ff191690557f5db9ee0a495bf2e6ff9c91a7834c1ba4fdd244a5e8aa4e537bd38aeae4b073aa335b6040516001600160a01b03909116815260200160405180910390a1565b60008060008411612a8b5760405162461bcd60e51b815260206004820152601660248201527f4552433230536e617073686f743a20696420697320300000000000000000000060448201526064016107de565b612a93613518565b841115612ae25760405162461bcd60e51b815260206004820152601d60248201527f4552433230536e617073686f743a206e6f6e6578697374656e7420696400000060448201526064016107de565b6000612aee8486613523565b84549091508103612b06576000809250925050612b2e565b6001846001018281548110612b1d57612b1d613f89565b906000526020600020015492509250505b9250929050565b611353838383604051602401612b4d939291906141c5565b60408051601f198184030181529190526020810180516001600160e01b03167fca47c4eb00000000000000000000000000000000000000000000000000000000179052613449565b6000612ba5600880546001019055565b6000612baf613518565b90507f8030e83b04d87bef53480e26263266d6ca66863aa8506aca6f2559d18aa1cb6781604051612be291815260200190565b60405180910390a1919050565b612bf761210c565b612c0182826135e8565b816001600160a01b03167f30385c845b448a36257a6a1716e6ad2e1bc2cbe333cde1e69fe849ad6511adfe82604051612c3c91815260200190565b60405180910390a25050565b6040516001600160a01b038085166024830152831660448201526064810182905261274f9085907f23b872dd0000000000000000000000000000000000000000000000000000000090608401612335565b600980546001600160a01b038381166101008181027fffffffffffffffffffffff0000000000000000000000000000000000000000ff85161790945560405193909204169182907f8be0079c531659141344cd1fd0a4f28419497f9722a3daafe3b4186f6b6457e090600090a35050565b6040517f7143cc9800000000000000000000000000000000000000000000000000000000815273__$71c07f590235b604fcd656680c29ae2e3e$__90637143cc9890612d83907f000000000000000000000000000000000000000000000000000000000000000090600b908890889088906004016141ea565b60006040518083038186803b158015612d9b57600080fd5b505af4158015612daf573d6000803e3d6000fd5b505050508160400135601a6000828254612dc99190614116565b9091555060009050612dd9610da9565b600c54909150811015612e2657600b546040517f6a3726a60000000000000000000000000000000000000000000000000000000081526004810191909152602481018290526044016107de565b6000601f81612e386020870187613b0d565b6001600160a01b03166001600160a01b0316815260200190815260200160002090508360400135816004016000828254612e729190614116565b9091555050601c546040517f7edb46720000000000000000000000000000000000000000000000000000000081526000918291829173__$71c07f590235b604fcd656680c29ae2e3e$__91637edb467291612efe917f000000000000000000000000000000000000000000000000000000000000000091602091600b918b918f91908e90600401614228565b606060405180830381865af4158015612f1b573d6000803e3d6000fd5b505050506040513d601f19601f82011682018060405250810190612f3f9190614273565b9250925092508160196000828254612f579190614116565b9091555050601754612f74906001600160a01b0316333085612c48565b600062015180612f90670de0b6b3a764000060608b0135613fe7565b612f9a9190614006565b9050612fc06040518060800160405280604481526020016143a2604491398285896133eb565b600c54600d54600e54601054600093849373__$899d9d6bad8be265c185445c5ad67b36d3$__9363e6d42332938b9389938f9391929091908c613004576000613008565b6011545b6040516001600160e01b031960e08b901b1681526004810198909852602488019690965260448701949094526064860192909252608485015260a484015260c483015260e4820152610104016040805180830381865af4158015613070573d6000803e3d6000fd5b505050506040513d601f19601f8201168201806040525081019061309491906142a8565b91509150601d6040518060e00160405280336001600160a01b031681526020018781526020018d81526020018481526020018381526020018c8036038101906130dd91906142cc565b8152600060209182018190528354600180820186559482528282208451600a9092020180547fffffffffffffffffffffffff00000000000000000000000000000000000000009081166001600160a01b039384161782558585015182880155604080870151600284015560608088015160038501556080880151600485015560a08801518051600586018054909516961695909517909255948301516006830155938201516007820155920151600883015560c0909201516009909101805460ff1916911515919091179055601d5490916131b791613f72565b90506131c660028901826136d3565b5033600090815260208052604090206131e290600101826136d3565b506131f060208c018c613b0d565b6001600160a01b0316336001600160a01b03167fa1caba86bec66ddc36f652014ac1a272715cfc216ff4e2e67d5d24b84d7c0ba08d6040013589604051613241929190918252602082015260400190565b60405180910390a3505050505050505050505050565b61325f61210c565b6009805460ff191660011790557f62e78cea01bee320cd4e420270b5ea74000d11b0c9f74754ebdbfc544b05a258612a1b3390565b6001600160a01b0383166132b3576132ab826136df565b611353613711565b6001600160a01b0382166132ca576132ab836136df565b6132d3836136df565b611353826136df565b6000613331826040518060400160405280602081526020017f5361666545524332303a206c6f772d6c6576656c2063616c6c206661696c6564815250856001600160a01b031661371f9092919063ffffffff16565b805190915015611353578080602001905181019061334f919061433b565b6113535760405162461bcd60e51b815260206004820152602a60248201527f5361666545524332303a204552433230206f7065726174696f6e20646964206e60448201527f6f7420737563636565640000000000000000000000000000000000000000000060648201526084016107de565b60008260000182815481106133d8576133d8613f89565b9060005260206000200154905092915050565b61274f848484846040516024016134059493929190614356565b60408051601f198184030181529190526020810180516001600160e01b03167fa7a87853000000000000000000000000000000000000000000000000000000001790525b80516a636f6e736f6c652e6c6f67602083016000808483855afa5050505050565b6060816000018054806020026020016040519081016040528092919081815260200182805480156134ba57602002820191906000526020600020905b8154815260200190600101908083116134a6575b50505050509050919050565b60095460ff166113a75760405162461bcd60e51b815260206004820152601460248201527f5061757361626c653a206e6f742070617573656400000000000000000000000060448201526064016107de565b6000610db660085490565b8154600090810361353657506000610c84565b82546000905b80821015613592576000613550838361372e565b90508486828154811061356557613565613f89565b9060005260206000200154111561357e5780915061358c565b613589816001614116565b92505b5061353c565b6000821180156135c7575083856135aa600185613f72565b815481106135ba576135ba613f89565b9060005260206000200154145b156135e0576135d7600183613f72565b92505050610c84565b509050610c84565b6001600160a01b03821661363e5760405162461bcd60e51b815260206004820152601f60248201527f45524332303a206d696e7420746f20746865207a65726f20616464726573730060448201526064016107de565b61364a60008383613294565b806002600082825461365c9190614116565b90915550506001600160a01b03821660009081526020819052604081208054839290613689908490614116565b90915550506040518181526001600160a01b038316906000907fddf252ad1be2c89b69c2b068fc378daa952ba7f163c4a11628f55a4df523b3ef9060200160405180910390a35050565b6000610ee28383613749565b6001600160a01b038116600090815260056020908152604080832091839052909120546121099190613798565b613798565b6113a7600661370c60025490565b6060611bad84846000856137e2565b600061373d6002848418614006565b610ee290848416614116565b600081815260018301602052604081205461379057508154600181810184556000848152602080822090930184905584548482528286019093526040902091909155610c84565b506000610c84565b60006137a2613518565b9050806137ae8461392a565b1015611353578254600180820185556000858152602080822090930193909355938401805494850181558252902090910155565b60608247101561385a5760405162461bcd60e51b815260206004820152602660248201527f416464726573733a20696e73756666696369656e742062616c616e636520666f60448201527f722063616c6c000000000000000000000000000000000000000000000000000060648201526084016107de565b6001600160a01b0385163b6138b15760405162461bcd60e51b815260206004820152601d60248201527f416464726573733a2063616c6c20746f206e6f6e2d636f6e747261637400000060448201526064016107de565b600080866001600160a01b031685876040516138cd9190614385565b60006040518083038185875af1925050503d806000811461390a576040519150601f19603f3d011682016040523d82523d6000602084013e61390f565b606091505b509150915061391f828286613974565b979650505050505050565b8054600090810361393d57506000919050565b8154829061394d90600190613f72565b8154811061395d5761395d613f89565b90600052602060002001549050919050565b919050565b60608315613983575081610ee2565b8251156139935782518084602001fd5b8160405162461bcd60e51b81526004016107de9190613c34565b6040518060e0016040528060006001600160a01b0316815260200160008152602001600081526020016000815260200160008152602001613a18604051806080016040528060006001600160a01b031681526020016000815260200160008152602001600081525090565b8152600060209091015290565b6040518060a0016040528060008152602001613a3f613a5a565b81526000602082018190526040820181905260609091015290565b6040518061014001604052806000815260200160008152602001600081526020016000815260200160008152602001600081526020016000815260200160008152602001613abb604051806040016040528060008152602001600081525090565b8152602001600081525090565b6001600160a01b038116811461210957600080fd5b60008060408385031215613af057600080fd5b823591506020830135613b0281613ac8565b809150509250929050565b600060208284031215613b1f57600080fd5b8135610ee281613ac8565b602080825282518282018190526000919060409081850190868401855b82811015613bcf57815180516001600160a01b03908116865287820151888701528682015187870152606080830151818801526080808401519088015260a0808401518051909316908801528189015160c0808901919091528289015160e0890152910151610100870152015115156101208501526101409093019290850190600101613b47565b5091979650505050505050565b60005b83811015613bf7578181015183820152602001613bdf565b8381111561274f5750506000910152565b60008151808452613c20816020860160208601613bdc565b601f01601f19169290920160200192915050565b602081526000610ee26020830184613c08565b60008060408385031215613c5a57600080fd5b8235613c6581613ac8565b946020939093013593505050565b634e487b7160e01b600052602160045260246000fd5b60038110613ca757634e487b7160e01b600052602160045260246000fd5b9052565b60208101610c848284613c89565b600060208284031215613ccb57600080fd5b5035919050565b600080600060608486031215613ce757600080fd5b8335613cf281613ac8565b92506020840135613d0281613ac8565b929592945050506040919091013590565b634e487b7160e01b600052604160045260246000fd5b604051601f8201601f1916810167ffffffffffffffff81118282101715613d5257613d52613d13565b604052919050565b600067ffffffffffffffff821115613d7457613d74613d13565b5060051b60200190565b60006020808385031215613d9157600080fd5b823567ffffffffffffffff811115613da857600080fd5b8301601f81018513613db957600080fd5b8035613dcc613dc782613d5a565b613d29565b81815260059190911b82018301908381019087831115613deb57600080fd5b928401925b8284101561391f578335613e0381613ac8565b82529284019290840190613df0565b60006101e08201905082518252602083015180516020840152602081015160408401526040810151606084015260608101516080840152608081015160a084015260a081015160c084015260c081015160e084015260e0810151610100818186015280830151915050610120613e948186018380518252602090810151910152565b91909101516101608401525060408301516001600160a01b039081166101808401526060840151166101a08301526080830151613ed56101c0840182613c89565b5092915050565b600060808284031215613eee57600080fd5b50919050565b60008060408385031215613f0757600080fd5b8235613f1281613ac8565b91506020830135613b0281613ac8565b600060208284031215613f3457600080fd5b815160038110610ee257600080fd5b600060208284031215613f5557600080fd5b5051919050565b634e487b7160e01b600052601160045260246000fd5b600082821015613f8457613f84613f5c565b500390565b634e487b7160e01b600052603260045260246000fd5b600181811c90821680613fb357607f821691505b602082108103613eee57634e487b7160e01b600052602260045260246000fd5b82815260408101610ee26020830184613c89565b600081600019048311821515161561400157614001613f5c565b500290565b60008261402357634e487b7160e01b600052601260045260246000fd5b500490565b60006020828403121561403a57600080fd5b815160ff81168114610ee257600080fd5b6000602080838503121561405e57600080fd5b825167ffffffffffffffff81111561407557600080fd5b8301601f8101851361408657600080fd5b8051614094613dc782613d5a565b81815260059190911b820183019083810190878311156140b357600080fd5b928401925b8284101561391f5783516140cb81613ac8565b825292840192908401906140b8565b8051801515811461396f57600080fd5b600080604083850312156140fd57600080fd5b8251915061410d602084016140da565b90509250929050565b6000821982111561412957614129613f5c565b500190565b803561413981613ac8565b6001600160a01b031682526020818101359083015260408082013590830152606090810135910152565b8481526020810184905260e0810161417e604083018561412e565b8260c083015295945050505050565b6080815260006141a06080830187613c08565b6001600160a01b03959095166020830152506040810192909252606090910152919050565b6060815260006141d86060830186613c08565b60208301949094525060400152919050565b6001600160a01b038616815260208101859052604081018490526101008101614216606083018561412e565b82151560e08301529695505050505050565b6000610140820190506001600160a01b038916825287602083015286604083015285606083015261425c608083018661412e565b610100820193909352610120015295945050505050565b60008060006060848603121561428857600080fd5b835192506020840151915061429f604085016140da565b90509250925092565b600080604083850312156142bb57600080fd5b505080516020909101519092909150565b6000608082840312156142de57600080fd5b6040516080810181811067ffffffffffffffff8211171561430157614301613d13565b604052823561430f81613ac8565b808252506020830135602082015260408301356040820152606083013560608201528091505092915050565b60006020828403121561434d57600080fd5b610ee2826140da565b6080815260006143696080830187613c08565b6020830195909552506040810192909252606090910152919050565b60008251614397818460208701613bdc565b919091019291505056fe70726f74656374696f6e4475726174696f6e496e446179733a2025732c2070726f74656374696f6e5072656d69756d3a2025732c206c65766572616765526174696f3a206c656e64696e67506f6f6c3a2025732c206c6173745072656d69756d4163637275616c54696d657374616d703a2025732c206c61746573745061796d656e7454696d657374616d703a202573546f74616c2073546f6b656e20756e6465726c79696e673a2025732c20636c61696d61626c65416d6f756e743a202573546f74616c206361706974616c3a2025732c20546f74616c2053546f6b656e20537570706c793a2025732c2065786368616e676520726174653a202573a264697066735822122071974f0351afaa23b08209732378be703002307972325fc779d7209a66ef892c64736f6c634300080d0033a2646970667358221220cd873730eae3a76cc4d248c6694a54b7bf201e1b7ce1c6dd40d33e7cd9abae3164736f6c634300080d003360a060405234801561001057600080fd5b50336080526080516106ff6100376000396000818161016201526102e001526106ff6000f3fe608060405234801561001057600080fd5b50600436106100885760003560e01c80639a63b96b1161005b5780639a63b96b1461013d578063a32cf5361461015d578063af835b8a146101a9578063d33cebae146101c957600080fd5b80631a0015931461008d5780632e1bc98f146100b657806353cf7d6a146100cb5780636bbd9d471461011c575b600080fd5b6100a061009b36600461055d565b6101ef565b6040516100ad91906105ae565b60405180910390f35b6100c96100c43660046105c2565b6102c8565b005b61010b6100d936600461055d565b600060208190529081526040902080546001820154600283015460038401546004909401549293919290919060ff1685565b6040516100ad9594939291906105ee565b61012f61012a36600461055d565b6103e8565b6040519081526020016100ad565b61015061014b36600461055d565b61041c565b6040516100ad9190610622565b6101847f000000000000000000000000000000000000000000000000000000000000000081565b60405173ffffffffffffffffffffffffffffffffffffffff90911681526020016100ad565b61012f6101b736600461055d565b60009081526020819052604090205490565b6100a06101d736600461055d565b60009081526020819052604090206004015460ff1690565b6000818152602081905260408120600481015460ff168281600281111561021857610218610576565b03610224579392505050565b600181600281111561023857610238610576565b0361026c5760028201546001830154610251904261067b565b11156102675760048201805460ff191660021790555b6102ba565b600281600281111561028057610280610576565b036102ba5760038201546001830154610299904261067b565b11156102ba576102ba8483846000015460016102b59190610692565b6104a7565b506004015460ff1692915050565b3373ffffffffffffffffffffffffffffffffffffffff7f0000000000000000000000000000000000000000000000000000000000000000161461033e576040517fb66368240000000000000000000000000000000000000000000000000000000081523360048201526024015b60405180910390fd5b600083815260208190526040902060018101541561038b576040517f18a088ae00000000000000000000000000000000000000000000000000000000815260048101859052602401610335565b818311156103c8576040517fafa38a3400000000000000000000000000000000000000000000000000000000815260048101839052602401610335565b60028101839055600381018290556103e2848260006104a7565b50505050565b600081815260208190526040812060038101546104069060026106aa565b81600101546104159190610692565b9392505050565b61042461051e565b6000808381526020019081526020016000206040518060a0016040529081600082015481526020016001820154815260200160028201548152602001600382015481526020016004820160009054906101000a900460ff16600281111561048d5761048d610576565b600281111561049e5761049e610576565b90525092915050565b80825542600180840182905560048401805460ff191690911790556002830154600384015460408051878152602081018690528082019490945260608401929092526080830152517ffabfcfe97bea6b27649c6952bde9cd1b6acf24c6de4348595a56f4a8c738caba9181900360a00190a1505050565b6040518060a00160405280600081526020016000815260200160008152602001600081526020016000600281111561055857610558610576565b905290565b60006020828403121561056f57600080fd5b5035919050565b634e487b7160e01b600052602160045260246000fd5b600381106105aa57634e487b7160e01b600052602160045260246000fd5b9052565b602081016105bc828461058c565b92915050565b6000806000606084860312156105d757600080fd5b505081359360208301359350604090920135919050565b600060a082019050868252856020830152846040830152836060830152610618608083018461058c565b9695505050505050565b600060a08201905082518252602083015160208301526040830151604083015260608301516060830152608083015161065e608084018261058c565b5092915050565b634e487b7160e01b600052601160045260246000fd5b60008282101561068d5761068d610665565b500390565b600082198211156106a5576106a5610665565b500190565b60008160001904831182151516156106c4576106c4610665565b50029056fea26469706673582212209fa87e1e42e8682a7145088080e34ea3b02bb847cdc88602af78c9acea0ab18664736f6c634300080d003360a060405234801561001057600080fd5b50336080526000805460010181558052608051611a0b61003b60003960006106110152611a0b6000f3fe608060405234801561001057600080fd5b50600436106100885760003560e01c806396d612421161005b57806396d6124214610118578063abd908461461012b578063de973da614610140578063e6c25c381461015357600080fd5b80632df275f01461008d578063468d0b74146100b35780634d6216c3146100d3578063779b2a6914610105575b600080fd5b6100a061009b366004611261565b61015b565b6040519081526020015b60405180910390f35b6100c66100c1366004611261565b6102de565b6040516100aa919061129a565b6100e66100e13660046112f5565b6103af565b604080516001600160a01b0390931683526020830191909152016100aa565b6100a061011336600461130e565b6103e7565b6100a061012636600461130e565b6105c1565b61013e61013936600461130e565b610606565b005b61013e61014e366004611332565b6107cc565b61013e61086c565b6001600160a01b0382166000908152600160205260408120548154829182918110610188576101886113a7565b906000526020600020906005020190506000816001015411156102d757805460408051630c048d9160e31b815290516000926001600160a01b0316916360246c88916004808301926101e09291908290030181865afa1580156101ef573d6000803e3d6000fd5b505050506040513d601f19601f8201168201806040525081019061021391906114bf565b606001516001600160a01b0316637e54404b6040518163ffffffff1660e01b8152600401600060405180830381865afa158015610254573d6000803e3d6000fd5b505050506040513d6000823e601f3d908101601f1916820160405261027c9190810190611646565b805190915060005b818110156102d35760008382815181106102a0576102a06113a7565b6020026020010151905060006102b786838a6108cf565b5090506102c48188611699565b96508260010192505050610284565b5050505b5092915050565b6001600160a01b0382166000908152600160205260408120548154606092918291811061030d5761030d6113a7565b600091825260208083206001600160a01b03871684526003600590930201918201815260408084208054825181850281018501909352808352939550909390929184015b828210156103a25760008481526020908190206040805160608101825260038602909201805483526001808201548486015260029091015460ff161515918301919091529083529092019101610351565b5050505091505092915050565b600081815481106103bf57600080fd5b6000918252602090912060059091020180546001909101546001600160a01b03909116915082565b33600090815260016020526040812054815482918291811061040b5761040b6113a7565b906000526020600020906005020190508060010154600003610460576040517f9e51bd5c0000000000000000000000000000000000000000000000000000000081523360048201526024015b60405180910390fd5b805460408051630c048d9160e31b815290516000926001600160a01b0316916360246c88916004808301926101e09291908290030181865afa1580156104aa573d6000803e3d6000fd5b505050506040513d601f19601f820116820180604052508101906104ce91906114bf565b606001516001600160a01b0316637e54404b6040518163ffffffff1660e01b8152600401600060405180830381865afa15801561050f573d6000803e3d6000fd5b505050506040513d6000823e601f3d908101601f191682016040526105379190810190611646565b805190915060005b818110156105b857600083828151811061055b5761055b6113a7565b6020026020010151905060008061057387848b6108cf565b90925090506105828289611699565b6001600160a01b0393841660009081526004890160209081526040808320968d168352959052939093205550945060010161053f565b50505050919050565b6001600160a01b038116600090815260016020526040812054815482919081106105ed576105ed6113a7565b9060005260206000209060050201600101549050919050565b336001600160a01b037f0000000000000000000000000000000000000000000000000000000000000000161461066a576040517fb6636824000000000000000000000000000000000000000000000000000000008152336004820152602401610457565b600080546001600160a01b0383168252600160205260408220548392908190838110610698576106986113a7565b906000526020600020906005020190506000816001015411156106f2576040517fdb771c800000000000000000000000000000000000000000000000000000000081526001600160a01b0384166004820152602401610457565b6000805460010180825581805285919084908110610712576107126113a7565b6000918252602080832060059290920290910180547fffffffffffffffffffffffff0000000000000000000000000000000000000000166001600160a01b039485161790559185168152600190915260408120839055805461079291908490811061077f5761077f6113a7565b9060005260206000209060050201610bca565b6040516001600160a01b038416907f9cc152f4650ca2829a210a21551537f4cc4d48c2611ec06974f835e911921b9090600090a250505050565b8060005b8181101561086657600080600160008787868181106107f1576107f16113a7565b9050602002016020810190610806919061130e565b6001600160a01b03166001600160a01b031681526020019081526020016000205481548110610837576108376113a7565b9060005260206000209060050201905060008160010154111561085d5761085d81610bca565b506001016107d0565b50505050565b60005460015b81811015610898576108906000828154811061077f5761077f6113a7565b600101610872565b506040514281527f3331bd6d3c9d9ac09f9da1af1b502a79e41706a036ea79feaa649a6d9357f95b9060200160405180910390a150565b6001600160a01b0380831660008181526004860160209081526040808320948616835293815283822054928252600387019052918220805483929190835b81811015610bbe576000838281548110610929576109296113a7565b9060005260206000209060030201905060008160000154905061097360405180606001604052806021815260200161192d602191396002840154600185015460ff90911690610e95565b600282015460ff1615801561098757508581115b15610bb4578a54604080516060810190915260378082526001600160a01b0390921691610a97919061194e602083013960405163277166bf60e11b81526001600160a01b038d8116600483015260248201869052841690634ee2cd7e90604401602060405180830381865afa158015610a04573d6000803e3d6000fd5b505050506040513d601f19601f82011682018060405250810190610a2891906116b1565b604051630981b24d60e41b8152600481018690526001600160a01b0385169063981b24d090602401602060405180830381865afa158015610a6d573d6000803e3d6000fd5b505050506040513d601f19601f82011682018060405250810190610a9191906116b1565b85610efa565b604051630981b24d60e41b8152600481018390526001600160a01b0382169063981b24d090602401602060405180830381865afa158015610adc573d6000803e3d6000fd5b505050506040513d601f19601f82011682018060405250810190610b0091906116b1565b600184015460405163277166bf60e11b81526001600160a01b038d8116600483015260248201869052841690634ee2cd7e90604401602060405180830381865afa158015610b52573d6000803e3d6000fd5b505050506040513d601f19601f82011682018060405250810190610b7691906116b1565b610b8091906116ca565b610b8a91906116e9565b9850819750610bb2604051806060016040528060248152602001611985602491398b8b610f5c565b505b505060010161090d565b50505050935093915050565b426001820155805460408051630c048d9160e31b8152905160009283926001600160a01b03909116916360246c88916004808201926101e0929091908290030181865afa158015610c1f573d6000803e3d6000fd5b505050506040513d601f19601f82011682018060405250810190610c4391906114bf565b606001516001600160a01b031663c3638fed6040518163ffffffff1660e01b8152600401600060405180830381865afa158015610c84573d6000803e3d6000fd5b505050506040513d6000823e601f3d908101601f19168201604052610cac919081019061170b565b8151919350915060005b81811015610e8e576000848281518110610cd257610cd26113a7565b6020908102919091018101516001600160a01b0381166000908152600289019092526040822054865191935060ff169190869085908110610d1557610d156113a7565b60200260200101519050806004811115610d3157610d316117d4565b826004811115610d4357610d436117d4565b14610dcb57610d8e6040518060600160405280602d81526020016119a9602d913984846004811115610d7757610d776117d4565b846004811115610d8957610d896117d4565b610fbc565b6001600160a01b03831660009081526002890160205260409020805482919060ff19166001836004811115610dc557610dc56117d4565b02179055505b6001826004811115610ddf57610ddf6117d4565b148015610dfd57506003816004811115610dfb57610dfb6117d4565b145b15610e0c57610e0c888461101e565b6003826004811115610e2057610e206117d4565b148015610e3e57506001816004811115610e3c57610e3c6117d4565b145b15610e4d57610e4d888461116d565b6003826004811115610e6157610e616117d4565b148015610e7f57506004816004811115610e7d57610e7d6117d4565b145b50836001019350505050610cb6565b5050505050565b610ef5838383604051602401610ead93929190611837565b60408051601f198184030181529190526020810180516001600160e01b03167fc95958d6000000000000000000000000000000000000000000000000000000001790526111d7565b505050565b61086684848484604051602401610f14949392919061185c565b60408051601f198184030181529190526020810180516001600160e01b03167fa7a87853000000000000000000000000000000000000000000000000000000001790526111d7565b610ef5838383604051602401610f749392919061188b565b60408051601f198184030181529190526020810180516001600160e01b03167f0d26b925000000000000000000000000000000000000000000000000000000001790526111d7565b61086684848484604051602401610fd694939291906118b9565b60408051601f198184030181529190526020810180516001600160e01b03167ff8f51b1e000000000000000000000000000000000000000000000000000000001790526111d7565b81546040517f6d8d96230000000000000000000000000000000000000000000000000000000081526001600160a01b0383811660048301529091169060009081908390636d8d96239060240160408051808303816000875af1158015611088573d6000803e3d6000fd5b505050506040513d601f19601f820116820180604052508101906110ac91906118f1565b6001600160a01b0380871660008181526003808b016020908152604080842081516060810183528881528084018a81526001828501818152845480830186559489529590972091519290950201908155925193830193909355516002909101805491151560ff19909216919091179055519395509193508516917f02ee32173cd17171101ed2119fb6e23a0a86e94e1cfbee04f4bae06d85bca3be9061115e9085908790918252602082015260400190565b60405180910390a35050505050565b600061117983836111f8565b60028101805460ff19169055835460018201546040519081529192506001600160a01b0390811691908416907fca31fa59e941ad19c217d6e0f0693fbbe8d42d6a6548aa88ee8ed11577c33c809060200160405180910390a3505050565b80516a636f6e736f6c652e6c6f67602083016000808483855afa5050505050565b6001600160a01b038116600090815260038301602052604081208054819061122290600190611915565b81548110611232576112326113a7565b906000526020600020906003020191505092915050565b6001600160a01b038116811461125e57600080fd5b50565b6000806040838503121561127457600080fd5b823561127f81611249565b9150602083013561128f81611249565b809150509250929050565b602080825282518282018190526000919060409081850190868401855b828110156112e8578151805185528681015187860152850151151585850152606090930192908501906001016112b7565b5091979650505050505050565b60006020828403121561130757600080fd5b5035919050565b60006020828403121561132057600080fd5b813561132b81611249565b9392505050565b6000806020838503121561134557600080fd5b823567ffffffffffffffff8082111561135d57600080fd5b818501915085601f83011261137157600080fd5b81358181111561138057600080fd5b8660208260051b850101111561139557600080fd5b60209290920196919550909350505050565b634e487b7160e01b600052603260045260246000fd5b634e487b7160e01b600052604160045260246000fd5b60405160a0810167ffffffffffffffff811182821017156113f6576113f66113bd565b60405290565b604051610140810167ffffffffffffffff811182821017156113f6576113f66113bd565b604051601f8201601f1916810167ffffffffffffffff81118282101715611449576114496113bd565b604052919050565b60006040828403121561146357600080fd5b6040516040810181811067ffffffffffffffff82111715611486576114866113bd565b604052825181526020928301519281019290925250919050565b80516114ab81611249565b919050565b8051600381106114ab57600080fd5b60008183036101e08112156114d357600080fd5b6114db6113d3565b8351815261016080601f19840112156114f357600080fd5b6114fb6113fc565b92506020850151835260408501516020840152606085015160408401526080850151606084015260a0850151608084015260c085015160a084015260e085015160c08401526101008086015160e085015261012061155b88828901611451565b82860152828701518186015250505081602082015261157d61018085016114a0565b604082015261158f6101a085016114a0565b60608201526115a16101c085016114b0565b6080820152949350505050565b600067ffffffffffffffff8211156115c8576115c86113bd565b5060051b60200190565b600082601f8301126115e357600080fd5b815160206115f86115f3836115ae565b611420565b82815260059290921b8401810191818101908684111561161757600080fd5b8286015b8481101561163b57805161162e81611249565b835291830191830161161b565b509695505050505050565b60006020828403121561165857600080fd5b815167ffffffffffffffff81111561166f57600080fd5b61167b848285016115d2565b949350505050565b634e487b7160e01b600052601160045260246000fd5b600082198211156116ac576116ac611683565b500190565b6000602082840312156116c357600080fd5b5051919050565b60008160001904831182151516156116e4576116e4611683565b500290565b60008261170657634e487b7160e01b600052601260045260246000fd5b500490565b6000806040838503121561171e57600080fd5b825167ffffffffffffffff8082111561173657600080fd5b611742868387016115d2565b935060209150818501518181111561175957600080fd5b85019050601f8101861361176c57600080fd5b805161177a6115f3826115ae565b818152600591821b830184019184820191908984111561179957600080fd5b938501935b838510156117c45784518181106117b55760008081fd5b8352938501939185019161179e565b5080955050505050509250929050565b634e487b7160e01b600052602160045260246000fd5b6000815180845260005b81811015611810576020818501810151868301820152016117f4565b81811115611822576000602083870101525b50601f01601f19169290920160200192915050565b60608152600061184a60608301866117ea565b93151560208301525060400152919050565b60808152600061186f60808301876117ea565b6020830195909552506040810192909252606090910152919050565b60608152600061189e60608301866117ea565b6001600160a01b039490941660208301525060400152919050565b6080815260006118cc60808301876117ea565b6001600160a01b03959095166020830152506040810192909252606090910152919050565b6000806040838503121561190457600080fd5b505080516020909101519092909150565b60008282101561192757611927611683565b50039056fe6c6f636b65644361706974616c2e6c6f636b65643a2025732c20616d743a20257362616c616e6365206f662073656c6c65723a2025732c20746f74616c20737570706c793a20257320617420736e617073686f743a202573436c61696d61626c6520616d6f756e7420666f722073656c6c65722025732069732025734c656e64696e6720706f6f6c20257320737461747573206368616e6765642066726f6d20257320746f20202573a264697066735822122001c85278a398e3a02707fa0991e1bc027c759d6a420efe5cca5f130a5051e0ad64736f6c634300080d0033",
  "linkReferences": {
    "contracts/libraries/AccruedPremiumCalculator.sol": {
      "AccruedPremiumCalculator": [
        {
          "length": 20,
          "start": 17295
        }
      ]
    },
    "contracts/libraries/PoolHelper.sol": {
      "PoolHelper": [
        {
          "length": 20,
          "start": 8611
        },
        {
          "length": 20,
          "start": 9476
        },
        {
          "length": 20,
          "start": 9736
        },
        {
          "length": 20,
          "start": 12734
        },
        {
          "length": 20,
          "start": 13055
        },
        {
          "length": 20,
          "start": 14638
        },
        {
          "length": 20,
          "start": 16622
        },
        {
          "length": 20,
          "start": 16997
        }
      ]
    }
  },
  "deployedLinkReferences": {
    "contracts/libraries/AccruedPremiumCalculator.sol": {
      "AccruedPremiumCalculator": [
        {
          "length": 20,
          "start": 16955
        }
      ]
    },
    "contracts/libraries/PoolHelper.sol": {
      "PoolHelper": [
        {
          "length": 20,
          "start": 8271
        },
        {
          "length": 20,
          "start": 9136
        },
        {
          "length": 20,
          "start": 9396
        },
        {
          "length": 20,
          "start": 12394
        },
        {
          "length": 20,
          "start": 12715
        },
        {
          "length": 20,
          "start": 14298
        },
        {
          "length": 20,
          "start": 16282
        },
        {
          "length": 20,
          "start": 16657
        }
      ]
    }
  }
}