{
  "_format": "hh-sol-artifact-1",
  "contractName": "PoolHelper",
  "sourceName": "contracts/libraries/PoolHelper.sol",
  "abi": [
    {
      "inputs": [],
      "name": "CanNotExtendProtectionAfterGracePeriod",
      "type": "error"
    },
    {
      "inputs": [
        {
          "internalType": "address",
          "name": "lendingPoolAddress",
          "type": "address"
        }
      ],
      "name": "LendingPoolDefaulted",
      "type": "error"
    },
    {
      "inputs": [
        {
          "internalType": "address",
          "name": "lendingPoolAddress",
          "type": "address"
        }
      ],
      "name": "LendingPoolExpired",
      "type": "error"
    },
    {
      "inputs": [
        {
          "internalType": "address",
          "name": "lendingPoolAddress",
          "type": "address"
        }
      ],
      "name": "LendingPoolHasLatePayment",
      "type": "error"
    },
    {
      "inputs": [
        {
          "internalType": "address",
          "name": "lendingPoolAddress",
          "type": "address"
        }
      ],
      "name": "LendingPoolNotSupported",
      "type": "error"
    },
    {
      "inputs": [],
      "name": "NoExpiredProtectionToExtend",
      "type": "error"
    },
    {
      "inputs": [
        {
          "internalType": "uint256",
          "name": "poolId",
          "type": "uint256"
        }
      ],
      "name": "PoolInOpenToSellersPhase",
      "type": "error"
    },
    {
      "inputs": [
        {
          "internalType": "uint256",
          "name": "protectionDurationInSeconds",
          "type": "uint256"
        }
      ],
      "name": "ProtectionDurationTooLong",
      "type": "error"
    },
    {
      "inputs": [
        {
          "internalType": "uint256",
          "name": "protectionDurationInSeconds",
          "type": "uint256"
        }
      ],
      "name": "ProtectionDurationTooShort",
      "type": "error"
    },
    {
      "inputs": [
        {
          "components": [
            {
              "internalType": "address",
              "name": "lendingPoolAddress",
              "type": "address"
            },
            {
              "internalType": "uint256",
              "name": "nftLpTokenId",
              "type": "uint256"
            },
            {
              "internalType": "uint256",
              "name": "protectionAmount",
              "type": "uint256"
            },
            {
              "internalType": "uint256",
              "name": "protectionDurationInSeconds",
              "type": "uint256"
            }
          ],
          "internalType": "struct ProtectionPurchaseParams",
          "name": "params",
          "type": "tuple"
        }
      ],
      "name": "ProtectionPurchaseNotAllowed",
      "type": "error"
    },
    {
      "inputs": [
        {
          "internalType": "uint256",
          "name": "amt",
          "type": "uint256"
        },
        {
          "internalType": "uint256",
          "name": "_targetDecimals",
          "type": "uint256"
        }
      ],
      "name": "scale18DecimalsAmtToUnderlyingDecimals",
      "outputs": [
        {
          "internalType": "uint256",
          "name": "",
          "type": "uint256"
        }
      ],
      "stateMutability": "pure",
      "type": "function"
    },
    {
      "inputs": [
        {
          "internalType": "uint256",
          "name": "_underlyingAmt",
          "type": "uint256"
        },
        {
          "internalType": "uint256",
          "name": "_underlyingTokenDecimals",
          "type": "uint256"
        }
      ],
      "name": "scaleUnderlyingAmtTo18Decimals",
      "outputs": [
        {
          "internalType": "uint256",
          "name": "",
          "type": "uint256"
        }
      ],
      "stateMutability": "pure",
      "type": "function"
    }
  ],
  "bytecode": "0x61161d61003a600b82828239805160001a60731461002d57634e487b7160e01b600052600060045260246000fd5b30600052607381538281f3fe73000000000000000000000000000000000000000030146080604052600436106100875760003560e01c80637eead7af116100655780637eead7af146101115780639475fc4614610124578063e0c5f2ed14610137578063eb4ace3c1461015757600080fd5b80637143cc981461008c57806373bc03a1146100ae5780637edb4672146100d4575b600080fd5b81801561009857600080fd5b506100ac6100a73660046110b3565b61017f565b005b6100c16100bc366004611112565b61030e565b6040519081526020015b60405180910390f35b8180156100e057600080fd5b506100f46100ef366004611134565b610341565b6040805193845260208401929092521515908201526060016100cb565b6100c161011f366004611112565b6106a8565b6100ac61013236600461119d565b6106c7565b81801561014357600080fd5b506100ac6101523660046111db565b61081b565b61016a6101653660046111db565b6108c2565b604080519283529015156020830152016100cb565b6000600d85015474010000000000000000000000000000000000000000900460ff1660028111156101b2576101b261120d565b036101f45783546040517f0895cb5b00000000000000000000000000000000000000000000000000000000815260048101919091526024015b60405180910390fd5b61021b85856000015485856060013585610212576008890154610ae7565b62015180610ae7565b600d84015461023f906001600160a01b031661023a6020850185611223565b610c7b565b600d8401546040517f65350fa20000000000000000000000000000000000000000000000000000000081526001600160a01b03909116906365350fa29061028e9033908690869060040161127c565b602060405180830381865afa1580156102ab573d6000803e3d6000fd5b505050506040513d601f19601f820116820180604052508101906102cf91906112a9565b61030757816040517f11f565330000000000000000000000000000000000000000000000000000000081526004016101eb91906112c6565b5050505050565b6000670de0b6b3a764000061032483600a6113ce565b61032e90856113da565b61033891906113f9565b90505b92915050565b6000806000896001600160a01b03166367ebfe6087606001356103e389604001358c600c0160009054906101000a90046001600160a01b03166001600160a01b031663313ce5676040518163ffffffff1660e01b8152600401602060405180830381865afa1580156103b7573d6000803e3d6000fd5b505050506040513d601f19601f820116820180604052508101906103db919061141b565b60ff166106a8565b600d8c01546001600160a01b03166356c7dee461040360208d018d611223565b6040517fffffffff0000000000000000000000000000000000000000000000000000000060e084901b1681526001600160a01b039091166004820152602401602060405180830381865afa15801561045f573d6000803e3d6000fd5b505050506040513d601f19601f82011682018060405250810190610483919061143e565b6040517fffffffff0000000000000000000000000000000000000000000000000000000060e086901b16815260048082019490945260248101929092526044820152606481018890526084810189905260018c015460a482015260028c015460c482015260038c015460e4820152908b015461010482015260058b015461012482015260068b015461014482015260078b015461016482015260088b015461018482015260098b01546101a4820152600a8b01546101c4820152600b8b01546101e4820152610204016040805180830381865afa158015610568573d6000803e3d6000fd5b505050506040513d601f19601f8201168201806040525081019061058c9190611457565b600c8a0154604080517f313ce56700000000000000000000000000000000000000000000000000000000815290519396509193506106289286926001600160a01b039092169163313ce5679160048083019260209291908290030181865afa1580156105fc573d6000803e3d6000fd5b505050506040513d601f19601f82011682018060405250810190610620919061141b565b60ff1661030e565b33600090815260208b8152604082209294508492919061064a908a018a611223565b6001600160a01b03166001600160a01b0316815260200190815260200160002060008282546106799190611487565b92505081905550818760010160008282546106949190611487565b925050819055509750975097945050505050565b60006106b582600a6113ce565b61032e670de0b6b3a7640000856113da565b3360009081526020858152604082206003019082906106e890860186611223565b6001600160a01b03166001600160a01b031681526020019081526020016000206000846020013581526020019081526020016000205490508060000361075a576040517f4781d6da00000000000000000000000000000000000000000000000000000000815260040160405180910390fd5b600084828154811061076e5761076e61149f565b6000918252602091829020600a909102019150600582019061079290860186611223565b81546001600160a01b0390811691161480156107b5575084602001358160010154145b156108125783816003015483600201546107cf9190611487565b6107d99190611487565b421115610812576040517fd6c5262f00000000000000000000000000000000000000000000000000000000815260040160405180910390fd5b50505050505050565b60098301805460ff1916600117905582546001600160a01b03166108426002840183610e61565b506001600160a01b03811660009081526020869052604090206108686001820184610e61565b506005850180546001600160a01b03166000908152600383016020908152604080832060068a0154845290915281208590556007870154600487018054919290916108b49084906114b5565b909155505050505050505050565b60028301546000908190808410806108d957504281115b156108eb576000809250925050610ade565b6008860154600287015460009161090191611487565b90508042119250828061091d5750818511801561091d57508585115b15610adb576000828711156109395761093683886114b5565b90505b600084156109985761094b84846114b5565b90506109936040518060400160405280601e81526020017f50726f74656374696f6e206578706972656420666f7220616d743a20257300008152508a60050160020154610e6d565b6109a5565b6109a284886114b5565b90505b60038901546004808b01546040517fbf1c6313000000000000000000000000000000000000000000000000000000008152918201859052602482018490526044820192909252606481019190915260009073__$899d9d6bad8be265c185445c5ad67b36d3$__9063bf1c631390608401602060405180830381865af4158015610a32573d6000803e3d6000fd5b505050506040513d601f19601f82011682018060405250810190610a56919061143e565b9050610a7c6040518060600160405280602581526020016115c360259139848484610ee4565b610ad5818c600c0160009054906101000a90046001600160a01b03166001600160a01b031663313ce5676040518163ffffffff1660e01b8152600401602060405180830381865afa1580156105fc573d6000803e3d6000fd5b96505050505b50505b94509492505050565b6000610af38385611487565b905081831015610b32576040517fbf3f9fff000000000000000000000000000000000000000000000000000000008152600481018490526024016101eb565b6040517f1a001593000000000000000000000000000000000000000000000000000000008152600481018690526001600160a01b03871690631a001593906024016020604051808303816000875af1158015610b92573d6000803e3d6000fd5b505050506040513d601f19601f82011682018060405250810190610bb691906114cc565b506040517f6bbd9d47000000000000000000000000000000000000000000000000000000008152600481018690526000906001600160a01b03881690636bbd9d4790602401602060405180830381865afa158015610c18573d6000803e3d6000fd5b505050506040513d601f19601f82011682018060405250810190610c3c919061143e565b905080821115610812576040517f4186d790000000000000000000000000000000000000000000000000000000008152600481018590526024016101eb565b6040517fcd0742450000000000000000000000000000000000000000000000000000000081526001600160a01b0382811660048301526000919084169063cd07424590602401602060405180830381865afa158015610cde573d6000803e3d6000fd5b505050506040513d601f19601f82011682018060405250810190610d0291906114ed565b90506000816004811115610d1857610d1861120d565b03610d5a576040517fe8a3f09b0000000000000000000000000000000000000000000000000000000081526001600160a01b03831660048201526024016101eb565b6003816004811115610d6e57610d6e61120d565b03610db0576040517fed723d510000000000000000000000000000000000000000000000000000000081526001600160a01b03831660048201526024016101eb565b6002816004811115610dc457610dc461120d565b03610e06576040517f8801ba2c0000000000000000000000000000000000000000000000000000000081526001600160a01b03831660048201526024016101eb565b6004816004811115610e1a57610e1a61120d565b03610e5c576040517f52a7e5670000000000000000000000000000000000000000000000000000000081526001600160a01b03831660048201526024016101eb565b505050565b60006103388383610f61565b610ee08282604051602401610e8392919061155b565b60408051601f198184030181529190526020810180517bffffffffffffffffffffffffffffffffffffffffffffffffffffffff167fb60e72cc00000000000000000000000000000000000000000000000000000000179052611054565b5050565b610f5b84848484604051602401610efe949392919061157d565b60408051601f198184030181529190526020810180517bffffffffffffffffffffffffffffffffffffffffffffffffffffffff167fa7a8785300000000000000000000000000000000000000000000000000000000179052611054565b50505050565b6000818152600183016020526040812054801561104a576000610f856001836114b5565b8554909150600090610f99906001906114b5565b9050818114610ffe576000866000018281548110610fb957610fb961149f565b9060005260206000200154905080876000018481548110610fdc57610fdc61149f565b6000918252602080832090910192909255918252600188019052604090208390555b855486908061100f5761100f6115ac565b60019003818190600052602060002001600090559055856001016000868152602001908152602001600020600090556001935050505061033b565b600091505061033b565b80516a636f6e736f6c652e6c6f67602083016000808483855afa5050505050565b6001600160a01b038116811461108a57600080fd5b50565b60006080828403121561109f57600080fd5b50919050565b801515811461108a57600080fd5b600080600080600061010086880312156110cc57600080fd5b85356110d781611075565b945060208601359350604086013592506110f4876060880161108d565b915060e0860135611104816110a5565b809150509295509295909350565b6000806040838503121561112557600080fd5b50508035926020909101359150565b6000806000806000806000610140888a03121561115057600080fd5b873561115b81611075565b965060208801359550604088013594506060880135935061117f8960808a0161108d565b92506101008801359150610120880135905092959891949750929550565b60008060008060e085870312156111b357600080fd5b84359350602085013592506111cb866040870161108d565b9396929550929360c00135925050565b600080600080608085870312156111f157600080fd5b5050823594602084013594506040840135936060013592509050565b634e487b7160e01b600052602160045260246000fd5b60006020828403121561123557600080fd5b813561124081611075565b9392505050565b803561125281611075565b6001600160a01b031682526020818101359083015260408082013590830152606090810135910152565b6001600160a01b038416815260c081016112996020830185611247565b82151560a0830152949350505050565b6000602082840312156112bb57600080fd5b8151611240816110a5565b6080810161033b8284611247565b634e487b7160e01b600052601160045260246000fd5b600181815b8085111561132557816000190482111561130b5761130b6112d4565b8085161561131857918102915b93841c93908002906112ef565b509250929050565b60008261133c5750600161033b565b816113495750600061033b565b816001811461135f576002811461136957611385565b600191505061033b565b60ff84111561137a5761137a6112d4565b50506001821b61033b565b5060208310610133831016604e8410600b84101617156113a8575081810a61033b565b6113b283836112ea565b80600019048211156113c6576113c66112d4565b029392505050565b6000610338838361132d565b60008160001904831182151516156113f4576113f46112d4565b500290565b60008261141657634e487b7160e01b600052601260045260246000fd5b500490565b60006020828403121561142d57600080fd5b815160ff8116811461124057600080fd5b60006020828403121561145057600080fd5b5051919050565b6000806040838503121561146a57600080fd5b82519150602083015161147c816110a5565b809150509250929050565b6000821982111561149a5761149a6112d4565b500190565b634e487b7160e01b600052603260045260246000fd5b6000828210156114c7576114c76112d4565b500390565b6000602082840312156114de57600080fd5b81516003811061124057600080fd5b6000602082840312156114ff57600080fd5b81516005811061124057600080fd5b6000815180845260005b8181101561153457602081850181015186830182015201611518565b81811115611546576000602083870101525b50601f01601f19169290920160200192915050565b60408152600061156e604083018561150e565b90508260208301529392505050565b608081526000611590608083018761150e565b6020830195909552506040810192909252606090910152919050565b634e487b7160e01b600052603160045260246000fdfe616363727565645072656d69756d2066726f6d207365636f6e6420257320746f2025733a20a2646970667358221220b1a22e4eb682f8d05c07d78ddc18aa35d6deaca7410ec0e5ed0eea94e6c4bce764736f6c634300080d0033",
  "linkReferences": {
    "contracts/libraries/AccruedPremiumCalculator.sol": {
      "AccruedPremiumCalculator": [
        {
          "length": 20,
          "start": 2610
        }
      ]
    }
  },
  "deployedLinkReferences": {
    "contracts/libraries/AccruedPremiumCalculator.sol": {
      "AccruedPremiumCalculator": [
        {
          "length": 20,
          "start": 2552
        }
      ]
    }
  }
}