{
  "_format": "hh-sol-artifact-1",
  "contractName": "AccruedPremiumCalculator",
  "sourceName": "contracts/libraries/AccruedPremiumCalculator.sol",
  "abi": [
    {
      "inputs": [],
      "name": "PRBMathSD59x18__DivInputTooSmall",
      "type": "error"
    },
    {
      "inputs": [
        {
          "internalType": "uint256",
          "name": "rAbs",
          "type": "uint256"
        }
      ],
      "name": "PRBMathSD59x18__DivOverflow",
      "type": "error"
    },
    {
      "inputs": [
        {
          "internalType": "int256",
          "name": "x",
          "type": "int256"
        }
      ],
      "name": "PRBMathSD59x18__Exp2InputTooBig",
      "type": "error"
    },
    {
      "inputs": [
        {
          "internalType": "int256",
          "name": "x",
          "type": "int256"
        }
      ],
      "name": "PRBMathSD59x18__ExpInputTooBig",
      "type": "error"
    },
    {
      "inputs": [],
      "name": "PRBMathSD59x18__MulInputTooSmall",
      "type": "error"
    },
    {
      "inputs": [
        {
          "internalType": "uint256",
          "name": "rAbs",
          "type": "uint256"
        }
      ],
      "name": "PRBMathSD59x18__MulOverflow",
      "type": "error"
    },
    {
      "inputs": [
        {
          "internalType": "uint256",
          "name": "prod1",
          "type": "uint256"
        }
      ],
      "name": "PRBMath__MulDivFixedPointOverflow",
      "type": "error"
    },
    {
      "inputs": [
        {
          "internalType": "uint256",
          "name": "prod1",
          "type": "uint256"
        },
        {
          "internalType": "uint256",
          "name": "denominator",
          "type": "uint256"
        }
      ],
      "name": "PRBMath__MulDivOverflow",
      "type": "error"
    },
    {
      "inputs": [
        {
          "internalType": "uint256",
          "name": "_fromSecond",
          "type": "uint256"
        },
        {
          "internalType": "uint256",
          "name": "_toSecond",
          "type": "uint256"
        },
        {
          "internalType": "int256",
          "name": "_k",
          "type": "int256"
        },
        {
          "internalType": "int256",
          "name": "_lambda",
          "type": "int256"
        }
      ],
      "name": "calculateAccruedPremium",
      "outputs": [
        {
          "internalType": "uint256",
          "name": "",
          "type": "uint256"
        }
      ],
      "stateMutability": "view",
      "type": "function"
    },
    {
      "inputs": [
        {
          "internalType": "uint256",
          "name": "_protectionPremium",
          "type": "uint256"
        },
        {
          "internalType": "uint256",
          "name": "_protectionDurationInDays",
          "type": "uint256"
        },
        {
          "internalType": "uint256",
          "name": "_currentLeverageRatio",
          "type": "uint256"
        },
        {
          "internalType": "uint256",
          "name": "_leverageRatioFloor",
          "type": "uint256"
        },
        {
          "internalType": "uint256",
          "name": "_leverageRatioCeiling",
          "type": "uint256"
        },
        {
          "internalType": "uint256",
          "name": "_leverageRatioBuffer",
          "type": "uint256"
        },
        {
          "internalType": "uint256",
          "name": "_curvature",
          "type": "uint256"
        },
        {
          "internalType": "uint256",
          "name": "_minCarapaceRiskPremiumPercent",
          "type": "uint256"
        }
      ],
      "name": "calculateKAndLambda",
      "outputs": [
        {
          "internalType": "int256",
          "name": "K",
          "type": "int256"
        },
        {
          "internalType": "int256",
          "name": "lambda",
          "type": "int256"
        }
      ],
      "stateMutability": "view",
      "type": "function"
    }
  ],
  "bytecode": "0x6113e061003a600b82828239805160001a60731461002d57634e487b7160e01b600052600060045260246000fd5b30600052607381538281f3fe73000000000000000000000000000000000000000030146080604052600436106100405760003560e01c8063bf1c631314610045578063e6d423321461006b575b600080fd5b610058610053366004611111565b610093565b6040519081526020015b60405180910390f35b61007e610079366004611143565b610174565b60408051928352602083019190915201610062565b60006100b86040518060600160405280602a8152602001611381602a913986866103aa565b6000620151806100c884886111ae565b6100d2919061124b565b6100de906000196111ae565b90506100e98161040f565b60006100f482610470565b90506100ff8161040f565b60006201518061010f86896111ae565b610119919061124b565b610125906000196111ae565b90506101308161040f565b600061013b82610470565b90506101468161040f565b600061015c6101558386611287565b8990610505565b90506101678161040f565b9998505050505050505050565b600080808315610219576040517f7133d9fe00000000000000000000000000000000000000000000000000000000815260048101859052602481018b905273__$4e59f54d7c32fa750e8d85f6a65aa7bc3a$__90637133d9fe90604401602060405180830381865af41580156101ee573d6000803e3d6000fd5b505050506040513d601f19601f8201168201806040525081019061021291906112c6565b90506102c5565b6040517fc4f5a98a000000000000000000000000000000000000000000000000000000008152600481018a90526024810189905260448101889052606481018790526084810186905273__$4e59f54d7c32fa750e8d85f6a65aa7bc3a$__9063c4f5a98a9060a401602060405180830381865af415801561029e573d6000803e3d6000fd5b505050506040513d601f19601f820116820180604052508101906102c291906112c6565b90505b618eac6102d38260646111ae565b6102dd919061124b565b91506102e88261040f565b6000670de0b6b3a7640000836103008d6000196111ae565b61030a91906111ae565b610314919061124b565b905061031f8161040f565b600061032a82610470565b90506103358161040f565b6103736040518060400160405280600d81526020017f43616c63756c6174696e67204b000000000000000000000000000000000000008152506105fc565b61038f61038882670de0b6b3a7640000611287565b8e90610658565b945061039a8561040f565b5050509850989650505050505050565b61040a8383836040516024016103c29392919061132c565b60408051601f198184030181529190526020810180516001600160e01b03167f969cdd0300000000000000000000000000000000000000000000000000000000179052610750565b505050565b61046d8160405160240161042591815260200190565b60408051601f198184030181529190526020810180516001600160e01b03167f4e0c1d1d00000000000000000000000000000000000000000000000000000000179052610750565b50565b600068023f2fa8f6da5b9d311982121561048c57506000919050565b680736ea4425c11ac63182126104d6576040517f99bb7541000000000000000000000000000000000000000000000000000000008152600481018390526024015b60405180910390fd5b6714057b7ef767814f82026104fe670de0b6b3a76400006706f05b59d3b20000830105610771565b9392505050565b6000600160ff1b83148061051c5750600160ff1b82145b15610553576040517f3406846c00000000000000000000000000000000000000000000000000000000815260040160405180910390fd5b600080600085126105645784610569565b846000035b915060008412610579578361057e565b836000035b9050600061058c8383610822565b90506001600160ff1b038111156105d2576040517fbf79e8d9000000000000000000000000000000000000000000000000000000008152600481018290526024016104cd565b6000198087139086138082186001146105eb57826105f0565b826000035b98975050505050505050565b61046d816040516024016106109190611351565b60408051601f198184030181529190526020810180516001600160e01b03167f41304fac00000000000000000000000000000000000000000000000000000000179052610750565b6000600160ff1b83148061066f5750600160ff1b82145b156106a6576040517fb3c754a300000000000000000000000000000000000000000000000000000000815260040160405180910390fd5b600080600085126106b757846106bc565b846000035b9150600084126106cc57836106d1565b836000035b905060006106e883670de0b6b3a76400008461091c565b90506001600160ff1b0381111561072e576040517f7cb4bef5000000000000000000000000000000000000000000000000000000008152600481018290526024016104cd565b60001980871390861380821860011461074757826105f0565b6105f083611364565b80516a636f6e736f6c652e6c6f67602083016000808483855afa5050505050565b6000808212156107c55768033dd1780914b971141982121561079557506000919050565b6107a182600003610771565b6ec097ce7bc90715b34b9f1000000000816107be576107be611235565b0592915050565b680a688906bd8b000000821261080a576040517fe69458f9000000000000000000000000000000000000000000000000000000008152600481018390526024016104cd565b670de0b6b3a7640000604083901b046104fe81610a01565b60008080600019848609848602925082811083820303915050670de0b6b3a7640000811061087f576040517fd31b3402000000000000000000000000000000000000000000000000000000008152600481018290526024016104cd565b600080670de0b6b3a764000086880991506706f05b59d3b1ffff82119050826000036108bd5780670de0b6b3a7640000850401945050505050610916565b6204000082850304939091119091037d40000000000000000000000000000000000000000000000000000000000002919091177faccb18165bd6fe31ae1cf318dc5b51eee0e1ba569b88cd74c1773b91fac10669020190505b92915050565b60008080600019858709858702925082811083820303915050806000036109565783828161094c5761094c611235565b04925050506104fe565b838110610999576040517f773cc18c00000000000000000000000000000000000000000000000000000000815260048101829052602481018590526044016104cd565b600084868809600260036001881981018916988990049182028318808302840302808302840302808302840302808302840302808302840302918202909203026000889003889004909101858311909403939093029303949094049190911702949350505050565b77800000000000000000000000000000000000000000000000678000000000000000821615610a395768016a09e667f3bcc9090260401c5b674000000000000000821615610a58576801306fe0a31b7152df0260401c5b672000000000000000821615610a77576801172b83c7d517adce0260401c5b671000000000000000821615610a965768010b5586cf9890f62a0260401c5b670800000000000000821615610ab5576801059b0d31585743ae0260401c5b670400000000000000821615610ad457680102c9a3e778060ee70260401c5b670200000000000000821615610af35768010163da9fb33356d80260401c5b670100000000000000821615610b1257680100b1afa5abcbed610260401c5b6680000000000000821615610b305768010058c86da1c09ea20260401c5b6640000000000000821615610b4e576801002c605e2e8cec500260401c5b6620000000000000821615610b6c57680100162f3904051fa10260401c5b6610000000000000821615610b8a576801000b175effdc76ba0260401c5b6608000000000000821615610ba857680100058ba01fb9f96d0260401c5b6604000000000000821615610bc65768010002c5cc37da94920260401c5b6602000000000000821615610be4576801000162e525ee05470260401c5b6601000000000000821615610c025768010000b17255775c040260401c5b65800000000000821615610c1f576801000058b91b5bc9ae0260401c5b65400000000000821615610c3c57680100002c5c89d5ec6d0260401c5b65200000000000821615610c595768010000162e43f4f8310260401c5b65100000000000821615610c7657680100000b1721bcfc9a0260401c5b65080000000000821615610c935768010000058b90cf1e6e0260401c5b65040000000000821615610cb0576801000002c5c863b73f0260401c5b65020000000000821615610ccd57680100000162e430e5a20260401c5b65010000000000821615610cea576801000000b1721835510260401c5b648000000000821615610d0657680100000058b90c0b490260401c5b644000000000821615610d225768010000002c5c8601cc0260401c5b642000000000821615610d3e576801000000162e42fff00260401c5b641000000000821615610d5a5768010000000b17217fbb0260401c5b640800000000821615610d76576801000000058b90bfce0260401c5b640400000000821615610d9257680100000002c5c85fe30260401c5b640200000000821615610dae5768010000000162e42ff10260401c5b640100000000821615610dca57680100000000b17217f80260401c5b6380000000821615610de55768010000000058b90bfc0260401c5b6340000000821615610e00576801000000002c5c85fe0260401c5b6320000000821615610e1b57680100000000162e42ff0260401c5b6310000000821615610e36576801000000000b17217f0260401c5b6308000000821615610e5157680100000000058b90c00260401c5b6304000000821615610e6c5768010000000002c5c8600260401c5b6302000000821615610e87576801000000000162e4300260401c5b6301000000821615610ea25768010000000000b172180260401c5b62800000821615610ebc576801000000000058b90c0260401c5b62400000821615610ed657680100000000002c5c860260401c5b62200000821615610ef05768010000000000162e430260401c5b62100000821615610f0a57680100000000000b17210260401c5b62080000821615610f245768010000000000058b910260401c5b62040000821615610f3e576801000000000002c5c80260401c5b62020000821615610f5857680100000000000162e40260401c5b62010000821615610f72576801000000000000b1720260401c5b618000821615610f8b57680100000000000058b90260401c5b614000821615610fa45768010000000000002c5d0260401c5b612000821615610fbd576801000000000000162e0260401c5b611000821615610fd65768010000000000000b170260401c5b610800821615610fef576801000000000000058c0260401c5b61040082161561100857680100000000000002c60260401c5b61020082161561102157680100000000000001630260401c5b61010082161561103a57680100000000000000b10260401c5b608082161561105257680100000000000000590260401c5b604082161561106a576801000000000000002c0260401c5b602082161561108257680100000000000000160260401c5b601082161561109a576801000000000000000b0260401c5b60088216156110b257680100000000000000060260401c5b60048216156110ca57680100000000000000030260401c5b60028216156110e257680100000000000000010260401c5b60018216156110fa57680100000000000000010260401c5b670de0b6b3a76400000260409190911c60bf031c90565b6000806000806080858703121561112757600080fd5b5050823594602084013594506040840135936060013592509050565b600080600080600080600080610100898b03121561116057600080fd5b505086359860208801359850604088013597606081013597506080810135965060a0810135955060c0810135945060e0013592509050565b634e487b7160e01b600052601160045260246000fd5b60006001600160ff1b036000841360008413858304851182821616156111d6576111d6611198565b600160ff1b60008712868205881281841616156111f5576111f5611198565b6000871292508782058712848416161561121157611211611198565b8785058712818416161561122757611227611198565b505050929093029392505050565b634e487b7160e01b600052601260045260246000fd5b60008261126857634e487b7160e01b600052601260045260246000fd5b600160ff1b82146000198414161561128257611282611198565b500590565b600080831283600160ff1b018312811516156112a5576112a5611198565b836001600160ff1b030183138116156112c0576112c0611198565b50500390565b6000602082840312156112d857600080fd5b5051919050565b6000815180845260005b81811015611305576020818501810151868301820152016112e9565b81811115611317576000602083870101525b50601f01601f19169290920160200192915050565b60608152600061133f60608301866112df565b60208301949094525060400152919050565b6020815260006104fe60208301846112df565b6000600160ff1b820361137957611379611198565b506000039056fe43616c63756c6174696e672061636372756564207072656d69756d2066726f6d3a20257320746f202573a2646970667358221220d049b0c7458c164c4d3faf6ad1250e26d8c78d4a68a4c4bdfd74146a4fae969c64736f6c634300080d0033",
  "linkReferences": {
    "contracts/libraries/RiskFactorCalculator.sol": {
      "RiskFactorCalculator": [
        {
          "length": 20,
          "start": 494
        },
        {
          "length": 20,
          "start": 670
        }
      ]
    }
  },
  "deployedLinkReferences": {
    "contracts/libraries/RiskFactorCalculator.sol": {
      "RiskFactorCalculator": [
        {
          "length": 20,
          "start": 436
        },
        {
          "length": 20,
          "start": 612
        }
      ]
    }
  }
}