{
  "_format": "hh-sol-artifact-1",
  "contractName": "PoolHelper",
  "sourceName": "contracts/libraries/PoolHelper.sol",
  "abi": [
    {
      "inputs": [],
      "name": "CanNotExtendProtectionAfterGracePeriod",
      "type": "error"
    },
    {
      "inputs": [
        {
          "internalType": "address",
          "name": "lendingPoolAddress",
          "type": "address"
        }
      ],
      "name": "LendingPoolDefaulted",
      "type": "error"
    },
    {
      "inputs": [
        {
          "internalType": "address",
          "name": "lendingPoolAddress",
          "type": "address"
        }
      ],
      "name": "LendingPoolExpired",
      "type": "error"
    },
    {
      "inputs": [
        {
          "internalType": "address",
          "name": "lendingPoolAddress",
          "type": "address"
        }
      ],
      "name": "LendingPoolHasLatePayment",
      "type": "error"
    },
    {
      "inputs": [
        {
          "internalType": "address",
          "name": "lendingPoolAddress",
          "type": "address"
        }
      ],
      "name": "LendingPoolNotSupported",
      "type": "error"
    },
    {
      "inputs": [],
      "name": "NoExpiredProtectionToExtend",
      "type": "error"
    },
    {
      "inputs": [
        {
          "internalType": "uint256",
          "name": "poolId",
          "type": "uint256"
        }
      ],
      "name": "PoolInOpenToSellersPhase",
      "type": "error"
    },
    {
      "inputs": [
        {
          "internalType": "uint256",
          "name": "premiumAmount",
          "type": "uint256"
        },
        {
          "internalType": "uint256",
          "name": "maxPremiumAmount",
          "type": "uint256"
        }
      ],
      "name": "PremiumExceedsMaxPremiumAmount",
      "type": "error"
    },
    {
      "inputs": [
        {
          "internalType": "uint256",
          "name": "protectionDurationInSeconds",
          "type": "uint256"
        }
      ],
      "name": "ProtectionDurationTooLong",
      "type": "error"
    },
    {
      "inputs": [
        {
          "internalType": "uint256",
          "name": "protectionDurationInSeconds",
          "type": "uint256"
        }
      ],
      "name": "ProtectionDurationTooShort",
      "type": "error"
    },
    {
      "inputs": [
        {
          "components": [
            {
              "internalType": "address",
              "name": "lendingPoolAddress",
              "type": "address"
            },
            {
              "internalType": "uint256",
              "name": "nftLpTokenId",
              "type": "uint256"
            },
            {
              "internalType": "uint256",
              "name": "protectionAmount",
              "type": "uint256"
            },
            {
              "internalType": "uint256",
              "name": "protectionDurationInSeconds",
              "type": "uint256"
            }
          ],
          "internalType": "struct ProtectionPurchaseParams",
          "name": "params",
          "type": "tuple"
        }
      ],
      "name": "ProtectionPurchaseNotAllowed",
      "type": "error"
    },
    {
      "inputs": [
        {
          "internalType": "uint256",
          "name": "amt",
          "type": "uint256"
        },
        {
          "internalType": "uint256",
          "name": "_targetDecimals",
          "type": "uint256"
        }
      ],
      "name": "scale18DecimalsAmtToUnderlyingDecimals",
      "outputs": [
        {
          "internalType": "uint256",
          "name": "",
          "type": "uint256"
        }
      ],
      "stateMutability": "pure",
      "type": "function"
    },
    {
      "inputs": [
        {
          "internalType": "uint256",
          "name": "_underlyingAmt",
          "type": "uint256"
        },
        {
          "internalType": "uint256",
          "name": "_underlyingTokenDecimals",
          "type": "uint256"
        }
      ],
      "name": "scaleUnderlyingAmtTo18Decimals",
      "outputs": [
        {
          "internalType": "uint256",
          "name": "",
          "type": "uint256"
        }
      ],
      "stateMutability": "pure",
      "type": "function"
    }
  ],
  "bytecode": "0x61172f61003a600b82828239805160001a60731461002d57634e487b7160e01b600052600060045260246000fd5b30600052607381538281f3fe73000000000000000000000000000000000000000030146080604052600436106100925760003560e01c80639475fc46116100655780639475fc4614610122578063a650fca214610135578063e0c5f2ed14610155578063eb4ace3c1461017557600080fd5b8063258022be14610097578063269f7152146100b957806373bc03a1146100ee5780637eead7af1461010f575b600080fd5b8180156100a357600080fd5b506100b76100b2366004611145565b61019d565b005b6100cc6100c73660046111ca565b610321565b6040805193845260208401929092521515908201526060015b60405180910390f35b6101016100fc36600461121c565b610615565b6040519081526020016100e5565b61010161011d36600461121c565b610648565b6100b761013036600461123e565b610667565b81801561014157600080fd5b506100cc61015036600461127c565b6107b2565b81801561016157600080fd5b506100b76101703660046112ed565b61088d565b6101886101833660046112ed565b610934565b604080519283529015156020830152016100e5565b6000600d85015474010000000000000000000000000000000000000000900460ff1660028111156101d0576101d061131f565b036102125783546040517f0895cb5b00000000000000000000000000000000000000000000000000000000815260048101919091526024015b60405180910390fd5b61023987856000015485856060013585610230576008890154610b59565b62015180610b59565b610250868661024b6020860186611335565b610ced565b600d8401546040517f65350fa20000000000000000000000000000000000000000000000000000000081526001600160a01b03909116906365350fa29061029f9033908690869060040161138e565b602060405180830381865afa1580156102bc573d6000803e3d6000fd5b505050506040513d601f19601f820116820180604052508101906102e091906113bb565b61031857816040517f11f5653300000000000000000000000000000000000000000000000000000000815260040161020991906113d8565b50505050505050565b6000806000876001600160a01b03166367ebfe6087606001356103c389604001358b600c0160009054906101000a90046001600160a01b03166001600160a01b031663313ce5676040518163ffffffff1660e01b8152600401602060405180830381865afa158015610397573d6000803e3d6000fd5b505050506040513d601f19601f820116820180604052508101906103bb91906113e6565b60ff16610648565b600d8b01546001600160a01b03166356c7dee46103e360208d018d611335565b6040517fffffffff0000000000000000000000000000000000000000000000000000000060e084901b1681526001600160a01b039091166004820152602401602060405180830381865afa15801561043f573d6000803e3d6000fd5b505050506040513d601f19601f820116820180604052508101906104639190611409565b6040517fffffffff0000000000000000000000000000000000000000000000000000000060e086901b16815260048082019490945260248101929092526044820152606481018890526084810189905260018b015460a482015260028b015460c482015260038b015460e4820152908a015461010482015260058a015461012482015260068a015461014482015260078a015461016482015260088a015461018482015260098a01546101a4820152600a8a01546101c4820152600b8a01546101e4820152610204016040805180830381865afa158015610548573d6000803e3d6000fd5b505050506040513d601f19601f8201168201806040525081019061056c9190611422565b600c890154604080517f313ce56700000000000000000000000000000000000000000000000000000000815290519396509193506106089286926001600160a01b039092169163313ce5679160048083019260209291908290030181865afa1580156105dc573d6000803e3d6000fd5b505050506040513d601f19601f8201168201806040525081019061060091906113e6565b60ff16610615565b9150955095509592505050565b6000670de0b6b3a764000061062b83600a61154c565b6106359085611558565b61063f9190611577565b90505b92915050565b600061065582600a61154c565b610635670de0b6b3a764000085611558565b33600090815260208581526040822060030190829061068890860186611335565b6001600160a01b03166001600160a01b03168152602001908152602001600020600084602001358152602001908152602001600020549050806000036106fa576040517f4781d6da00000000000000000000000000000000000000000000000000000000815260040160405180910390fd5b600084828154811061070e5761070e611599565b6000918252602091829020600a909102019150600582019061073290860186611335565b81546001600160a01b039081169116148015610755575084602001358160010154145b1561031857838160030154836002015461076f91906115af565b61077991906115af565b421115610318576040517fd6c5262f00000000000000000000000000000000000000000000000000000000815260040160405180910390fd5b60008060006107c48b8a898888610321565b919450925090508582111561080f576040517f6792303f0000000000000000000000000000000000000000000000000000000081526004810183905260248101879052604401610209565b33600090815260208b8152604082208492909161082e908b018b611335565b6001600160a01b03166001600160a01b03168152602001908152602001600020600082825461085d91906115af565b925050819055508188600101600082825461087891906115af565b92505081905550985098509895505050505050565b60098301805460ff1916600117905582546001600160a01b03166108b46002840183610ef9565b506001600160a01b03811660009081526020869052604090206108da6001820184610ef9565b506005850180546001600160a01b03166000908152600383016020908152604080832060068a0154845290915281208590556007870154600487018054919290916109269084906115c7565b909155505050505050505050565b600283015460009081908084108061094b57504281115b1561095d576000809250925050610b50565b60088601546002870154600091610973916115af565b90508042119250828061098f5750818511801561098f57508585115b15610b4d576000828711156109ab576109a883886115c7565b90505b60008415610a0a576109bd84846115c7565b9050610a056040518060400160405280601e81526020017f50726f74656374696f6e206578706972656420666f7220616d743a20257300008152508a60050160020154610f05565b610a17565b610a1484886115c7565b90505b60038901546004808b01546040517fbf1c6313000000000000000000000000000000000000000000000000000000008152918201859052602482018490526044820192909252606481019190915260009073__$899d9d6bad8be265c185445c5ad67b36d3$__9063bf1c631390608401602060405180830381865af4158015610aa4573d6000803e3d6000fd5b505050506040513d601f19601f82011682018060405250810190610ac89190611409565b9050610aee6040518060600160405280602581526020016116d560259139848484610f7c565b610b47818c600c0160009054906101000a90046001600160a01b03166001600160a01b031663313ce5676040518163ffffffff1660e01b8152600401602060405180830381865afa1580156105dc573d6000803e3d6000fd5b96505050505b50505b94509492505050565b6000610b6583856115af565b905081831015610ba4576040517fbf3f9fff00000000000000000000000000000000000000000000000000000000815260048101849052602401610209565b6040517f1a001593000000000000000000000000000000000000000000000000000000008152600481018690526001600160a01b03871690631a001593906024016020604051808303816000875af1158015610c04573d6000803e3d6000fd5b505050506040513d601f19601f82011682018060405250810190610c2891906115de565b506040517f6bbd9d47000000000000000000000000000000000000000000000000000000008152600481018690526000906001600160a01b03881690636bbd9d4790602401602060405180830381865afa158015610c8a573d6000803e3d6000fd5b505050506040513d601f19601f82011682018060405250810190610cae9190611409565b905080821115610318576040517f4186d79000000000000000000000000000000000000000000000000000000000815260048101859052602401610209565b6040517ffad185950000000000000000000000000000000000000000000000000000000081526001600160a01b03838116600483015282811660248301526000919085169063fad1859590604401602060405180830381865afa158015610d58573d6000803e3d6000fd5b505050506040513d601f19601f82011682018060405250810190610d7c91906115ff565b90506000816005811115610d9257610d9261131f565b03610dd4576040517fe8a3f09b0000000000000000000000000000000000000000000000000000000081526001600160a01b0383166004820152602401610209565b6002816005811115610de857610de861131f565b1480610e0557506003816005811115610e0357610e0361131f565b145b15610e47576040517fed723d510000000000000000000000000000000000000000000000000000000081526001600160a01b0383166004820152602401610209565b6005816005811115610e5b57610e5b61131f565b03610e9d576040517f8801ba2c0000000000000000000000000000000000000000000000000000000081526001600160a01b0383166004820152602401610209565b6004816005811115610eb157610eb161131f565b03610ef3576040517f52a7e5670000000000000000000000000000000000000000000000000000000081526001600160a01b0383166004820152602401610209565b50505050565b600061063f8383610ff3565b610f788282604051602401610f1b92919061166d565b60408051601f198184030181529190526020810180517bffffffffffffffffffffffffffffffffffffffffffffffffffffffff167f9710a9d0000000000000000000000000000000000000000000000000000000001790526110e6565b5050565b610ef384848484604051602401610f96949392919061168f565b60408051601f198184030181529190526020810180517bffffffffffffffffffffffffffffffffffffffffffffffffffffffff167f08ee5666000000000000000000000000000000000000000000000000000000001790526110e6565b600081815260018301602052604081205480156110dc5760006110176001836115c7565b855490915060009061102b906001906115c7565b905081811461109057600086600001828154811061104b5761104b611599565b906000526020600020015490508087600001848154811061106e5761106e611599565b6000918252602080832090910192909255918252600188019052604090208390555b85548690806110a1576110a16116be565b600190038181906000526020600020016000905590558560010160008681526020019081526020016000206000905560019350505050610642565b6000915050610642565b80516a636f6e736f6c652e6c6f67602083016000808483855afa5050505050565b6001600160a01b038116811461111c57600080fd5b50565b60006080828403121561113157600080fd5b50919050565b801515811461111c57600080fd5b6000806000806000806000610140888a03121561116157600080fd5b873561116c81611107565b9650602088013561117c81611107565b9550604088013561118c81611107565b945060608801359350608088013592506111a98960a08a0161111f565b91506101208801356111ba81611137565b8091505092959891949750929550565b600080600080600061010086880312156111e357600080fd5b85356111ee81611107565b945060208601359350611204876040880161111f565b9497939650939460c0810135945060e0013592915050565b6000806040838503121561122f57600080fd5b50508035926020909101359150565b60008060008060e0858703121561125457600080fd5b843593506020850135925061126c866040870161111f565b9396929550929360c00135925050565b600080600080600080600080610160898b03121561129957600080fd5b88356112a481611107565b97506020890135965060408901359550606089013594506112c88a60808b0161111f565b979a969950949793969561010085013595506101208501359461014001359350915050565b6000806000806080858703121561130357600080fd5b5050823594602084013594506040840135936060013592509050565b634e487b7160e01b600052602160045260246000fd5b60006020828403121561134757600080fd5b813561135281611107565b9392505050565b803561136481611107565b6001600160a01b031682526020818101359083015260408082013590830152606090810135910152565b6001600160a01b038416815260c081016113ab6020830185611359565b82151560a0830152949350505050565b6000602082840312156113cd57600080fd5b815161135281611137565b608081016106428284611359565b6000602082840312156113f857600080fd5b815160ff8116811461135257600080fd5b60006020828403121561141b57600080fd5b5051919050565b6000806040838503121561143557600080fd5b82519150602083015161144781611137565b809150509250929050565b634e487b7160e01b600052601160045260246000fd5b600181815b808511156114a357816000190482111561148957611489611452565b8085161561149657918102915b93841c939080029061146d565b509250929050565b6000826114ba57506001610642565b816114c757506000610642565b81600181146114dd57600281146114e757611503565b6001915050610642565b60ff8411156114f8576114f8611452565b50506001821b610642565b5060208310610133831016604e8410600b8410161715611526575081810a610642565b6115308383611468565b806000190482111561154457611544611452565b029392505050565b600061063f83836114ab565b600081600019048311821515161561157257611572611452565b500290565b60008261159457634e487b7160e01b600052601260045260246000fd5b500490565b634e487b7160e01b600052603260045260246000fd5b600082198211156115c2576115c2611452565b500190565b6000828210156115d9576115d9611452565b500390565b6000602082840312156115f057600080fd5b81516003811061135257600080fd5b60006020828403121561161157600080fd5b81516006811061135257600080fd5b6000815180845260005b818110156116465760208185018101518683018201520161162a565b81811115611658576000602083870101525b50601f01601f19169290920160200192915050565b6040815260006116806040830185611620565b90508260208301529392505050565b6080815260006116a26080830187611620565b6020830195909552506040810192909252606090910152919050565b634e487b7160e01b600052603160045260246000fdfe616363727565645072656d69756d2066726f6d207365636f6e6420257320746f2025733a20a264697066735822122059608e61bb74954da23fbedcb026a6c963e6f3b1f7bc52bd58c1c00b7dc3ba9464736f6c634300080d0033",
  "linkReferences": {
    "contracts/libraries/AccruedPremiumCalculator.sol": {
      "AccruedPremiumCalculator": [
        {
          "length": 20,
          "start": 2724
        }
      ]
    }
  },
  "deployedLinkReferences": {
    "contracts/libraries/AccruedPremiumCalculator.sol": {
      "AccruedPremiumCalculator": [
        {
          "length": 20,
          "start": 2666
        }
      ]
    }
  }
}