{
  "_format": "hh-sol-artifact-1",
  "contractName": "PoolFactory",
  "sourceName": "contracts/core/PoolFactory.sol",
  "abi": [
    {
      "inputs": [],
      "stateMutability": "nonpayable",
      "type": "constructor"
    },
    {
      "anonymous": false,
      "inputs": [
        {
          "indexed": true,
          "internalType": "address",
          "name": "previousOwner",
          "type": "address"
        },
        {
          "indexed": true,
          "internalType": "address",
          "name": "newOwner",
          "type": "address"
        }
      ],
      "name": "OwnershipTransferred",
      "type": "event"
    },
    {
      "anonymous": false,
      "inputs": [
        {
          "indexed": false,
          "internalType": "uint256",
          "name": "poolId",
          "type": "uint256"
        },
        {
          "indexed": false,
          "internalType": "address",
          "name": "poolAddress",
          "type": "address"
        },
        {
          "indexed": false,
          "internalType": "uint256",
          "name": "floor",
          "type": "uint256"
        },
        {
          "indexed": false,
          "internalType": "uint256",
          "name": "ceiling",
          "type": "uint256"
        },
        {
          "indexed": false,
          "internalType": "contract IERC20Metadata",
          "name": "underlyingToken",
          "type": "address"
        },
        {
          "indexed": false,
          "internalType": "contract IReferenceLendingPools",
          "name": "referenceLendingPools",
          "type": "address"
        },
        {
          "indexed": false,
          "internalType": "contract IPremiumCalculator",
          "name": "premiumCalculator",
          "type": "address"
        }
      ],
      "name": "PoolCreated",
      "type": "event"
    },
    {
      "inputs": [
        {
          "internalType": "bytes32",
          "name": "_salt",
          "type": "bytes32"
        },
        {
          "components": [
            {
              "internalType": "uint256",
              "name": "leverageRatioFloor",
              "type": "uint256"
            },
            {
              "internalType": "uint256",
              "name": "leverageRatioCeiling",
              "type": "uint256"
            },
            {
              "internalType": "uint256",
              "name": "leverageRatioBuffer",
              "type": "uint256"
            },
            {
              "internalType": "uint256",
              "name": "minRequiredCapital",
              "type": "uint256"
            },
            {
              "internalType": "uint256",
              "name": "curvature",
              "type": "uint256"
            },
            {
              "internalType": "uint256",
              "name": "minCarapaceRiskPremiumPercent",
              "type": "uint256"
            },
            {
              "internalType": "uint256",
              "name": "underlyingRiskPremiumPercent",
              "type": "uint256"
            },
            {
              "internalType": "uint256",
              "name": "minProtectionDurationInSeconds",
              "type": "uint256"
            },
            {
              "components": [
                {
                  "internalType": "uint256",
                  "name": "openCycleDuration",
                  "type": "uint256"
                },
                {
                  "internalType": "uint256",
                  "name": "cycleDuration",
                  "type": "uint256"
                }
              ],
              "internalType": "struct PoolCycleParams",
              "name": "poolCycleParams",
              "type": "tuple"
            },
            {
              "internalType": "uint256",
              "name": "protectionExtensionGracePeriodInSeconds",
              "type": "uint256"
            }
          ],
          "internalType": "struct PoolParams",
          "name": "_poolParameters",
          "type": "tuple"
        },
        {
          "internalType": "contract IERC20Metadata",
          "name": "_underlyingToken",
          "type": "address"
        },
        {
          "internalType": "contract IReferenceLendingPools",
          "name": "_referenceLendingPools",
          "type": "address"
        },
        {
          "internalType": "contract IPremiumCalculator",
          "name": "_premiumCalculator",
          "type": "address"
        },
        {
          "internalType": "string",
          "name": "_name",
          "type": "string"
        },
        {
          "internalType": "string",
          "name": "_symbol",
          "type": "string"
        }
      ],
      "name": "createPool",
      "outputs": [
        {
          "internalType": "address",
          "name": "",
          "type": "address"
        }
      ],
      "stateMutability": "nonpayable",
      "type": "function"
    },
    {
      "inputs": [],
      "name": "getDefaultStateManager",
      "outputs": [
        {
          "internalType": "contract IDefaultStateManager",
          "name": "",
          "type": "address"
        }
      ],
      "stateMutability": "view",
      "type": "function"
    },
    {
      "inputs": [
        {
          "internalType": "uint256",
          "name": "_poolId",
          "type": "uint256"
        }
      ],
      "name": "getPoolAddress",
      "outputs": [
        {
          "internalType": "address",
          "name": "",
          "type": "address"
        }
      ],
      "stateMutability": "view",
      "type": "function"
    },
    {
      "inputs": [],
      "name": "getPoolCycleManager",
      "outputs": [
        {
          "internalType": "contract IPoolCycleManager",
          "name": "",
          "type": "address"
        }
      ],
      "stateMutability": "view",
      "type": "function"
    },
    {
      "inputs": [],
      "name": "owner",
      "outputs": [
        {
          "internalType": "address",
          "name": "",
          "type": "address"
        }
      ],
      "stateMutability": "view",
      "type": "function"
    },
    {
      "inputs": [],
      "name": "renounceOwnership",
      "outputs": [],
      "stateMutability": "nonpayable",
      "type": "function"
    },
    {
      "inputs": [
        {
          "internalType": "address",
          "name": "newOwner",
          "type": "address"
        }
      ],
      "name": "transferOwnership",
      "outputs": [],
      "stateMutability": "nonpayable",
      "type": "function"
    }
  ],
  "bytecode": "0x60c060405234801561001057600080fd5b5061001a3361009e565b604051610026906100f7565b604051809103906000f080158015610042573d6000803e3d6000fd5b506001600160a01b031660805260405161005b90610105565b604051809103906000f080158015610077573d6000803e3d6000fd5b506001600160a01b031660a05261009960016100ee602090811b6105b517901c565b610113565b600080546001600160a01b038381166001600160a01b0319831681178455604051919092169283917f8be0079c531659141344cd1fd0a4f28419497f9722a3daafe3b4186f6b6457e09190a35050565b80546001019055565b6107368062005bae83390190565b611c4880620062e483390190565b60805160a051615a5a62000154600039600081816101310152818161020b015261039101526000818160d5015281816101ea01526102fd0152615a5a6000f3fe60806040523480156200001157600080fd5b5060043610620000865760003560e01c80638da5cb5b11620000625780638da5cb5b1462000106578063cd28ae5d1462000118578063e52f6337146200012f578063f2fde38b146200015657600080fd5b8062a5ae21146200008b57806362c3eaed14620000d3578063715018a614620000fa575b600080fd5b620000b76200009c36600462000685565b6000908152600260205260409020546001600160a01b031690565b6040516001600160a01b03909116815260200160405180910390f35b7f0000000000000000000000000000000000000000000000000000000000000000620000b7565b620001046200016d565b005b6000546001600160a01b0316620000b7565b620000b76200012936600462000713565b62000185565b7f0000000000000000000000000000000000000000000000000000000000000000620000b7565b6200010462000167366004620007f6565b6200051b565b62000177620005be565b6200018360006200061a565b565b600062000191620005be565b60006200019d60015490565b905060008b6040518060a001604052808481526020018d803603810190620001c69190620008b5565b81526001600160a01b03808e1660208301528c1660408201526060016000815250897f00000000000000000000000000000000000000000000000000000000000000007f00000000000000000000000000000000000000000000000000000000000000008b8b8b8b6040516200023c9062000677565b6200024f98979695949392919062000992565b8190604051809103906000f590508015801562000270573d6000803e3d6000fd5b506000838152600260205260409020805473ffffffffffffffffffffffffffffffffffffffff19166001600160a01b03831617905560018054810190559050806040517f2e1bc98f000000000000000000000000000000000000000000000000000000008152600481018490526101008d013560248201526101208d013560448201526001600160a01b037f00000000000000000000000000000000000000000000000000000000000000001690632e1bc98f90606401600060405180830381600087803b1580156200034257600080fd5b505af115801562000357573d6000803e3d6000fd5b50506040517fabd908460000000000000000000000000000000000000000000000000000000081526001600160a01b0385811660048301527f000000000000000000000000000000000000000000000000000000000000000016925063abd908469150602401600060405180830381600087803b158015620003d857600080fd5b505af1158015620003ed573d6000803e3d6000fd5b505050507fdcc493ea851dd3c975b7bcc26c22290d453e4a0ffc64283cadaf08cb49dfb66183828e600001358f602001358f8f8f6040516200046d97969594939291909687526001600160a01b0395861660208801526040870194909452606086019290925283166080850152821660a08401521660c082015260e00190565b60405180910390a1816001600160a01b031663f2fde38b620004976000546001600160a01b031690565b6040517fffffffff0000000000000000000000000000000000000000000000000000000060e084901b1681526001600160a01b039091166004820152602401600060405180830381600087803b158015620004f157600080fd5b505af115801562000506573d6000803e3d6000fd5b50929f9e505050505050505050505050505050565b62000525620005be565b6001600160a01b038116620005a75760405162461bcd60e51b815260206004820152602660248201527f4f776e61626c653a206e6577206f776e657220697320746865207a65726f206160448201527f646472657373000000000000000000000000000000000000000000000000000060648201526084015b60405180910390fd5b620005b2816200061a565b50565b80546001019055565b6000546001600160a01b03163314620001835760405162461bcd60e51b815260206004820181905260248201527f4f776e61626c653a2063616c6c6572206973206e6f7420746865206f776e657260448201526064016200059e565b600080546001600160a01b0383811673ffffffffffffffffffffffffffffffffffffffff19831681178455604051919092169283917f8be0079c531659141344cd1fd0a4f28419497f9722a3daafe3b4186f6b6457e09190a35050565b614f628062000ac383390190565b6000602082840312156200069857600080fd5b5035919050565b6001600160a01b0381168114620005b257600080fd5b8035620006c2816200069f565b919050565b60008083601f840112620006da57600080fd5b50813567ffffffffffffffff811115620006f357600080fd5b6020830191508360208285010111156200070c57600080fd5b9250929050565b6000806000806000806000806000898b036102208112156200073457600080fd5b8a359950610160601f19820112156200074c57600080fd5b5060208a0197506101808a013562000764816200069f565b96506101a08a013562000777816200069f565b9550620007886101c08b01620006b5565b94506101e08a013567ffffffffffffffff80821115620007a757600080fd5b620007b58d838e01620006c7565b90965094506102008c0135915080821115620007d057600080fd5b50620007df8c828d01620006c7565b915080935050809150509295985092959850929598565b6000602082840312156200080957600080fd5b813562000816816200069f565b9392505050565b604051610140810167ffffffffffffffff811182821017156200085057634e487b7160e01b600052604160045260246000fd5b60405290565b6000604082840312156200086957600080fd5b6040516040810181811067ffffffffffffffff821117156200089b57634e487b7160e01b600052604160045260246000fd5b604052823581526020928301359281019290925250919050565b60006101608284031215620008c957600080fd5b620008d36200081d565b823581526020830135602082015260408301356040820152606083013560608201526080830135608082015260a083013560a082015260c083013560c082015260e083013560e08201526101006200092e8582860162000856565b90820152610140929092013561012083015250919050565b600381106200096557634e487b7160e01b600052602160045260246000fd5b9052565b81835281816020850137506000828201602090810191909152601f909101601f19169091010190565b60006102808a51835260208b015180516020850152602081015160408501526040810151606085015260608101516080850152608081015160a085015260a081015160c085015260c081015160e085015260e081015161010081818701528083015191505061012062000a118187018380518252602090810151910152565b91909101516101608501525060408b01516001600160a01b0390811661018085015260608c0151166101a084015260808b015162000a546101c085018262000946565b506001600160a01b038a166101e08401526001600160a01b0389166102008401526001600160a01b0388166102208401528061024084015262000a9b818401878962000969565b905082810361026084015262000ab381858762000969565b9b9a505050505050505050505056fe60e06040523480156200001157600080fd5b5060405162004f6238038062004f628339810160408190526200003491620004b8565b8181818181600390805190602001906200005092919062000268565b5080516200006690600490602084019062000268565b50506009805460ff19169055506200007e336200020e565b7fd0a8437f3bcd4a876272af7a7cf0ca48396f581a8b59d66774fea6deb61de3978282604051620000b192919062000687565b60405180910390a150506001600a558551600b9081556020808801518051600c5580820151600d55604080820151600e55606080830151600f5560808084015160105560a084015160115560c084015160125560e084015160135561010084015180516014559094015160155561012090920151601655890151601780546001600160a01b03199081166001600160a01b0393841617909155918a015160188054938416919092169081178255928a01518a949390926001600160a81b03191617600160a01b8360028111156200018c576200018c620006b9565b021790555050506001600160a01b0380861660805284811660a05283811660c0526017546018546040517f70275c2b1d7c8221ef92016ee3f4621d95674b3b9fa29514d1da279867775a9e93620001ed9387938793918316921690620006cf565b60405180910390a15050601d80546001018155600052506200075992505050565b600980546001600160a01b03838116610100818102610100600160a81b031985161790945560405193909204169182907f8be0079c531659141344cd1fd0a4f28419497f9722a3daafe3b4186f6b6457e090600090a35050565b82805462000276906200071d565b90600052602060002090601f0160209004810192826200029a5760008555620002e5565b82601f10620002b557805160ff1916838001178555620002e5565b82800160010185558215620002e5579182015b82811115620002e5578251825591602001919060010190620002c8565b50620002f3929150620002f7565b5090565b5b80821115620002f35760008155600101620002f8565b634e487b7160e01b600052604160045260246000fd5b60405160a081016001600160401b03811182821017156200034957620003496200030e565b60405290565b60405161014081016001600160401b03811182821017156200034957620003496200030e565b6000604082840312156200038857600080fd5b604080519081016001600160401b0381118282101715620003ad57620003ad6200030e565b604052825181526020928301519281019290925250919050565b80516001600160a01b0381168114620003df57600080fd5b919050565b805160038110620003df57600080fd5b60005b8381101562000411578181015183820152602001620003f7565b8381111562000421576000848401525b50505050565b600082601f8301126200043957600080fd5b81516001600160401b03808211156200045657620004566200030e565b604051601f8301601f19908116603f011681019082821181831017156200048157620004816200030e565b816040528381528660208588010111156200049b57600080fd5b620004ae846020830160208901620003f4565b9695505050505050565b600080600080600080868803610280811215620004d457600080fd5b6101e080821215620004e557600080fd5b620004ef62000324565b8951815261016080601f19850112156200050857600080fd5b620005126200034f565b935060208b0151845260408b0151602085015260608b0151604085015260808b0151606085015260a08b0151608085015260c08b015160a085015260e08b015160c0850152610100808c015160e0860152610120620005748e828f0162000375565b82870152828d015181870152505050826020820152620005986101808b01620003c7565b6040820152620005ac6101a08b01620003c7565b6060820152620005c06101c08b01620003e4565b60808201529750620005d4898201620003c7565b96505050620005e76102008801620003c7565b9350620005f86102208801620003c7565b6102408801519093506001600160401b03808211156200061757600080fd5b620006258a838b0162000427565b93506102608901519150808211156200063d57600080fd5b506200064c89828a0162000427565b9150509295509295509295565b6000815180845262000673816020860160208601620003f4565b601f01601f19169290920160200192915050565b6040815260006200069c604083018562000659565b8281036020840152620006b0818562000659565b95945050505050565b634e487b7160e01b600052602160045260246000fd5b608081526000620006e4608083018762000659565b8281036020840152620006f8818762000659565b6001600160a01b03958616604085015293909416606090920191909152509392505050565b600181811c908216806200073257607f821691505b6020821081036200075357634e487b7160e01b600052602260045260246000fd5b50919050565b60805160a05160c0516147a8620007ba6000396000818161180c015281816118d70152612c79015260008181610781015281816108c7015281816114b501528181611ef80152612c57015260008181611db90152612dc301526147a86000f3fe608060405234801561001057600080fd5b50600436106103145760003560e01c80636e553f65116101a7578063a1cfbce9116100ee578063c9a6e6a211610097578063e887ed6511610071578063e887ed6514610706578063f2fde38b14610719578063ff7f444e1461072c57600080fd5b8063c9a6e6a21461064e578063d6902fa51461069f578063dd62ed3e146106cd57600080fd5b8063af918279116100c8578063af91827914610615578063b1463a6a14610628578063b7b856aa1461063b57600080fd5b8063a1cfbce9146105e6578063a457c2d7146105ef578063a9059cbb1461060257600080fd5b80638682c1651161015057806395d89b411161012a57806395d89b41146105b8578063981b24d0146105c05780639ee679e8146105d357600080fd5b80638682c1651461054f578063870b38b1146105585780638da5cb5b1461058f57600080fd5b8063715018a611610181578063715018a61461051757806381f7f4d41461051f5780638456cb591461054757600080fd5b80636e553f65146104c857806370a08231146104db57806370f1b4cc1461050457600080fd5b8063313ce5671161026b5780634ee2cd7e1161021457806360246c88116101ee57806360246c88146104785780636ab8b7151461048d5780636d8d9623146104a057600080fd5b80634ee2cd7e146104525780635aea9de2146104655780635c975abb1461046d57600080fd5b8063419a0bbe11610245578063419a0bbe14610438578063436725fe146104405780634d21af961461044957600080fd5b8063313ce5671461040e578063395093511461041d5780633f4ba83a1461043057600080fd5b806314291b64116102cd57806323b872dd116102a757806323b872dd146103d55780632c45dd37146103e857806330212e6d146103fb57600080fd5b806314291b64146103a457806318160ddd146103ba5780631dc7f521146103c257600080fd5b806306fdde03116102fe57806306fdde0314610357578063095ea7b31461036c5780631256cc631461038f57600080fd5b8062f714ce1461031957806303d9c1901461032e575b600080fd5b61032c610327366004613d14565b61074c565b005b61034161033c366004613d44565b610abd565b60405161034e9190613d61565b60405180910390f35b61035f610c3d565b60405161034e9190613e6b565b61037f61037a366004613e7e565b610ccf565b604051901515815260200161034e565b610397610ce9565b60405161034e9190613ee2565b6103ac610e08565b60405190815260200161034e565b6002546103ac565b6103ac6103d0366004613ef0565b610e1a565b61037f6103e3366004613f09565b610f48565b61032c6103f6366004613fb5565b610f6c565b61032c610409366004614061565b6113b7565b6040516012815260200161034e565b61037f61042b366004613e7e565b61142c565b61032c61146b565b6103ac61147d565b6103ac601c5481565b6103ac60195481565b6103ac610460366004613e7e565b611532565b61034161158b565b60095460ff1661037f565b6104806116e5565b60405161034e919061408c565b61032c61049b366004613d44565b6117d3565b6104b36104ae366004613d44565b6118c9565b6040805192835260208301919091520161034e565b61032c6104d6366004613d14565b611aa2565b6103ac6104e9366004613d44565b6001600160a01b031660009081526020819052604090205490565b61032c610512366004614061565b611c57565b61032c611d4c565b61053261052d366004614156565b611d5e565b6040805192835290151560208301520161034e565b61032c611e36565b6103ac601a5481565b6103ac610566366004614172565b6001600160a01b0391821660009081526020808052604080832093909416825291909152205490565b60095461010090046001600160a01b03166040516001600160a01b03909116815260200161034e565b61035f611e46565b6103ac6105ce366004613ef0565b611e55565b61032c6105e1366004613ef0565b611e80565b6103ac601b5481565b61037f6105fd366004613e7e565b61203d565b61037f610610366004613e7e565b6120e7565b6103ac610623366004613e7e565b6120f5565b61032c610636366004613ef0565b61214d565b61032c610649366004613ef0565b61215a565b61068461065c366004613d44565b6001600160a01b03166000908152601f60205260409020805460018201546004909201549092565b6040805193845260208401929092529082015260600161034e565b6103ac6106ad366004613ef0565b6000908152601e6020908152604080832033845260010190915290205490565b6103ac6106db366004614172565b6001600160a01b03918216600090815260016020908152604080832093909416825291909152205490565b6103ac610714366004613ef0565b612167565b61032c610727366004613d44565b6122a5565b6103ac61073a366004613ef0565b6000908152601e602052604090205490565b600b546040517f1a001593000000000000000000000000000000000000000000000000000000008152600481018290526000907f00000000000000000000000000000000000000000000000000000000000000006001600160a01b031690631a001593906024016020604051808303816000875af11580156107d2573d6000803e3d6000fd5b505050506040513d601f19601f820116820180604052508101906107f691906141a0565b9050600181600281111561080c5761080c613eaa565b1461084b576040517f04a67a33000000000000000000000000000000000000000000000000000000008152600481018390526024015b60405180910390fd5b610853612335565b6002600a54036108a55760405162461bcd60e51b815260206004820152601f60248201527f5265656e7472616e637947756172643a207265656e7472616e742063616c6c006044820152606401610842565b6002600a55600b546040516357c1adc560e11b81526000916001600160a01b037f0000000000000000000000000000000000000000000000000000000000000000169163af835b8a916108fe9160040190815260200190565b602060405180830381865afa15801561091b573d6000803e3d6000fd5b505050506040513d601f19601f8201168201806040525081019061093f91906141c1565b6000818152601e602090815260408083203384526001810190925282205492935091908190036109a4576040517f50274ddb00000000000000000000000000000000000000000000000000000000815233600482015260248101849052604401610842565b808711156109e7576040517fac75914e00000000000000000000000000000000000000000000000000000000815233600482015260248101829052604401610842565b60006109f288610e1a565b90506109fe3389612388565b80601c6000828254610a1091906141f0565b9091555050336000908152600184016020526040812080548a9290610a369084906141f0565b9091555050825488908490600090610a4f9084906141f0565b9091555050601754610a6b906001600160a01b03168883612519565b604080518981526001600160a01b038916602082015233917f565848cdb1369b8f0e5b0f6eb298a192163a96cf9f692903ec5f14cd2c0b7b65910160405180910390a250506001600a55505050505050565b6001600160a01b03811660009081526020805260408120606091600190910190610ae682612595565b90508067ffffffffffffffff811115610b0157610b01613f4a565b604051908082528060200260200182016040528015610b3a57816020015b610b27613be4565b815260200190600190039081610b1f5790505b50925060005b81811015610c35576000610b54848361259f565b9050601d8181548110610b6957610b69614207565b60009182526020918290206040805160e081018252600a90930290910180546001600160a01b03908116845260018201548486015260028201548484015260038201546060808601919091526004830154608080870191909152845190810185526005840154909216825260068301549582019590955260078201549281019290925260088101549382019390935260a082015260099091015460ff16151560c08201528551869084908110610c2157610c21614207565b602090810291909101015250600101610b40565b505050919050565b606060038054610c4c9061421d565b80601f0160208091040260200160405190810160405280929190818152602001828054610c789061421d565b8015610cc55780601f10610c9a57610100808354040283529160200191610cc5565b820191906000526020600020905b815481529060010190602001808311610ca857829003601f168201915b5050505050905090565b600033610cdd8185856125ab565b60019150505b92915050565b6000610cf3612703565b601854600160a01b900460ff166000816002811115610d1457610d14613eaa565b148015610d255750600f54601c5410155b15610d80576018805460ff60a01b1916600160a01b179055600b54604051600193507fab7857a330a475611ec7d33d58ab0a6866e8217be427b99d5154f0f606f96dd691610d74918590614251565b60405180910390a15090565b6001816002811115610d9457610d94613eaa565b03610e0457600d54610da4610e08565b11610e04576018805460ff60a01b191674020000000000000000000000000000000000000000179055600b54604051600293507fab7857a330a475611ec7d33d58ab0a6866e8217be427b99d5154f0f606f96dd691610d74918590614251565b5090565b6000610e15601c54612763565b905090565b600080670de0b6b3a7640000610e2e612796565b610e389085614265565b610e429190614284565b905073__$71c07f590235b604fcd656680c29ae2e3e$__6373bc03a182600b600c0160009054906101000a90046001600160a01b03166001600160a01b031663313ce5676040518163ffffffff1660e01b8152600401602060405180830381865afa158015610eb5573d6000803e3d6000fd5b505050506040513d601f19601f82011682018060405250810190610ed991906142a6565b6040516001600160e01b031960e085901b168152600481019290925260ff166024820152604401602060405180830381865af4158015610f1d573d6000803e3d6000fd5b505050506040513d601f19601f82011682018060405250810190610f4191906141c1565b9392505050565b600033610f568582856128ec565b610f6185858561297e565b506001949350505050565b805160000361100357601854604080517f7e54404b00000000000000000000000000000000000000000000000000000000815290516001600160a01b0390921691637e54404b916004808201926000929091908290030181865afa158015610fd8573d6000803e3d6000fd5b505050506040513d6000823e601f3d908101601f1916820160405261100091908101906142c9565b90505b805160005b818110156113b257600083828151811061102457611024614207565b6020908102919091018101516001600160a01b038082166000818152601f909452604080852060185491517fecf7348f00000000000000000000000000000000000000000000000000000000815260048101939093529395509293929091169063ecf7348f90602401602060405180830381865afa1580156110aa573d6000803e3d6000fd5b505050506040513d601f19601f820116820180604052508101906110ce91906141c1565b90506000826000015490506110fd6040518060800160405280604c81526020016146ba604c9139858385612ba0565b600061110b84600201612c02565b8051909150600090815b8181101561135757600084828151811061113157611131614207565b602002602001015190506000601d828154811061115057611150614207565b6000918252602082206040517feb4ace3c000000000000000000000000000000000000000000000000000000008152600b6004820152600a9092020160248201819052604482018a9052606482018b90529250819073__$71c07f590235b604fcd656680c29ae2e3e$__9063eb4ace3c906084016040805180830381865af41580156111e0573d6000803e3d6000fd5b505050506040513d601f19601f820116820180604052508101906112049190614368565b9150915081601b600082825461121a9190614394565b9250508190555081601c60008282546112339190614394565b9091555061124390508288614394565b96508015611348576007830154601a80546000906112629084906141f0565b90915550506040517fe0c5f2ed0000000000000000000000000000000000000000000000000000000081526020600482015260248101849052604481018c90526064810185905273__$71c07f590235b604fcd656680c29ae2e3e$__9063e0c5f2ed9060840160006040518083038186803b1580156112e057600080fd5b505af41580156112f4573d6000803e3d6000fd5b505050506005830154835460078501546040519081526001600160a01b0392831692909116907f716744237671421983fbf1e422fc2a3aab01f9da655ec16d8d0ffb48667ba6599060200160405180910390a35b84600101945050505050611115565b5081156113a0578486556040518581526001600160a01b038816907f01eec1972235079c8b936fa90c60971e8c30f080d120220b91bd45e082cf7c8c9060200160405180910390a25b87600101975050505050505050611008565b505050565b6113bf612335565b6002600a54036114115760405162461bcd60e51b815260206004820152601f60248201527f5265656e7472616e637947756172643a207265656e7472616e742063616c6c006044820152606401610842565b6002600a556114234283836000612c0f565b50506001600a55565b3360008181526001602090815260408083206001600160a01b0387168452909152812054909190610cdd9082908690611466908790614394565b6125ab565b611473612703565b61147b61316a565b565b600b546040517f6bbd9d47000000000000000000000000000000000000000000000000000000008152600481019190915260009042907f00000000000000000000000000000000000000000000000000000000000000006001600160a01b031690636bbd9d4790602401602060405180830381865afa158015611504573d6000803e3d6000fd5b505050506040513d601f19601f8201168201806040525081019061152891906141c1565b610e1591906141f0565b6001600160a01b0382166000908152600560205260408120819081906115599085906131bc565b9150915081611580576001600160a01b038516600090815260208190526040902054611582565b805b95945050505050565b601d5460609061159c6001826141f0565b67ffffffffffffffff8111156115b4576115b4613f4a565b6040519080825280602002602001820160405280156115ed57816020015b6115da613be4565b8152602001906001900390816115d25790505b509150600060015b828110156116df57601d818154811061161057611610614207565b60009182526020918290206040805160e081018252600a90930290910180546001600160a01b03908116845260018201548486015260028201548484015260038201546060808601919091526004830154608080870191909152845190810185526005840154909216825260068301549582019590955260078201549281019290925260088101549382019390935260a082015260099091015460ff16151560c082015284518590849081106116c8576116c8614207565b6020908102919091010152600191820191016115f5565b50505090565b6116ed613c5c565b6040805160a08082018352600b80548352835161014081018552600c548152600d54602080830191909152600e5482870152600f546060808401919091526010546080808501919091526011549584019590955260125460c084015260135460e084015286518088018852601454815260155481840152610100840152601654610120840152908501919091526017546001600160a01b039081169585019590955260185494851690840152919290830190600160a01b900460ff1660028111156117ba576117ba613eaa565b60028111156117cb576117cb613eaa565b905250919050565b6117db612335565b6040517f779b2a690000000000000000000000000000000000000000000000000000000081523360048201526000907f00000000000000000000000000000000000000000000000000000000000000006001600160a01b03169063779b2a69906024016020604051808303816000875af115801561185d573d6000803e3d6000fd5b505050506040513d601f19601f8201168201806040525081019061188191906141c1565b905080156118c5576118ae60405180606001604052806030815260200161470660309139601c54836132b9565b6017546118c5906001600160a01b03168383612519565b5050565b600080336001600160a01b037f00000000000000000000000000000000000000000000000000000000000000001614611930576040517f34e20f53000000000000000000000000000000000000000000000000000000008152336004820152602401610842565b611938612335565b611940613319565b6001600160a01b0384166000908152601f60205260408120919250600282019061196982612595565b905060005b81811015611a67576000611982848361259f565b90506000601d828154811061199957611999614207565b600091825260208220601854600a909202018054600682015460405163df68cecd60e01b81526001600160a01b038f81166004830152928316602482015260448101919091529194509091169063df68cecd90606401602060405180830381865afa158015611a0c573d6000803e3d6000fd5b505050506040513d601f19601f82011682018060405250810190611a3091906141c1565b60078301549091506000828210611a475782611a49565b815b9050611a55818c614394565b9a50856001019550505050505061196e565b5084601c541015611a8257601c805460009091559450611a9a565b84601c6000828254611a9491906141f0565b90915550505b505050915091565b611aaa612335565b6002600a5403611afc5760405162461bcd60e51b815260206004820152601f60248201527f5265656e7472616e637947756172643a207265656e7472616e742063616c6c006044820152606401610842565b6002600a556001601854600160a01b900460ff166002811115611b2157611b21613eaa565b03611b5f57600b546040517f429e8c060000000000000000000000000000000000000000000000000000000081526004810191909152602401610842565b6000611b6a83612167565b905082601c6000828254611b7e9190614394565b90915550611b8e90508282613373565b601754611ba6906001600160a01b03163330866133cc565b600f54601c5410611c0a576000611bbb610e08565b600d54909150811115611c0857600b546040517f1288c773000000000000000000000000000000000000000000000000000000008152600481019190915260248101829052604401610842565b505b816001600160a01b03167ff9f7a3ddf73f96f1cf688388747bf9c1008e6db180d4cbd5f83337dc73908e6184604051611c4591815260200190565b60405180910390a250506001600a5550565b611c5f612335565b6002600a5403611cb15760405162461bcd60e51b815260206004820152601f60248201527f5265656e7472616e637947756172643a207265656e7472616e742063616c6c006044820152606401610842565b6002600a556016546040517f9475fc4600000000000000000000000000000000000000000000000000000000815273__$71c07f590235b604fcd656680c29ae2e3e$__91639475fc4691611d0f91602091601d9188916004016143e1565b60006040518083038186803b158015611d2757600080fd5b505af4158015611d3b573d6000803e3d6000fd5b505050506114234283836001612c0f565b611d54612703565b61147b600061341d565b6000806000611d6b610e08565b601c546040517f269f715200000000000000000000000000000000000000000000000000000000815291925073__$71c07f590235b604fcd656680c29ae2e3e$__9163269f715291611de9917f000000000000000000000000000000000000000000000000000000000000000091600b918a9190889060040161440b565b606060405180830381865af4158015611e06573d6000803e3d6000fd5b505050506040513d601f19601f82011682018060405250810190611e2a9190614443565b90969095509350505050565b611e3e612703565b61147b61348e565b606060048054610c4c9061421d565b6000806000611e658460066131bc565b9150915081611e7657600254611e78565b805b949350505050565b611e88612335565b3360009081526020819052604090205480821115611edb576040517f654d08a000000000000000000000000000000000000000000000000000000000815233600482015260248101829052604401610842565b600b546040516357c1adc560e11b81526000916001600160a01b037f0000000000000000000000000000000000000000000000000000000000000000169163af835b8a91611f2f9160040190815260200190565b602060405180830381865afa158015611f4c573d6000803e3d6000fd5b505050506040513d601f19601f82011682018060405250810190611f7091906141c1565b90506000611f7f826002614394565b6000818152601e60209081526040808320338452600181019092529091208054908790559192509085811115611fd757611fb986826141f0565b826000016000828254611fcc91906141f0565b90915550611ffa9050565b611fe181876141f0565b826000016000828254611ff49190614394565b90915550505b604080518781526020810185905233917f24b91f4f47caf44230a57777a9be744924e82bf666f2d5702faf97df35e60f9f910160405180910390a2505050505050565b3360008181526001602090815260408083206001600160a01b0387168452909152812054909190838110156120da5760405162461bcd60e51b815260206004820152602560248201527f45524332303a2064656372656173656420616c6c6f77616e63652062656c6f7760448201527f207a65726f0000000000000000000000000000000000000000000000000000006064820152608401610842565b610f6182868684036125ab565b600033610cdd81858561297e565b60185460405163df68cecd60e01b81526001600160a01b03848116600483015233602483015260448201849052600092169063df68cecd90606401602060405180830381865afa158015610f1d573d6000803e3d6000fd5b612155612703565b600d55565b612162612703565b600c55565b60008073__$71c07f590235b604fcd656680c29ae2e3e$__637eead7af84600b600c0160009054906101000a90046001600160a01b03166001600160a01b031663313ce5676040518163ffffffff1660e01b8152600401602060405180830381865afa1580156121db573d6000803e3d6000fd5b505050506040513d601f19601f820116820180604052508101906121ff91906142a6565b6040516001600160e01b031960e085901b168152600481019290925260ff166024820152604401602060405180830381865af4158015612243573d6000803e3d6000fd5b505050506040513d601f19601f8201168201806040525081019061226791906141c1565b905061227260025490565b60000361227f5792915050565b6000612289612796565b61229b670de0b6b3a764000084614265565b611e789190614284565b6122ad612703565b6001600160a01b0381166123295760405162461bcd60e51b815260206004820152602660248201527f4f776e61626c653a206e6577206f776e657220697320746865207a65726f206160448201527f64647265737300000000000000000000000000000000000000000000000000006064820152608401610842565b6123328161341d565b50565b60095460ff161561147b5760405162461bcd60e51b815260206004820152601060248201527f5061757361626c653a20706175736564000000000000000000000000000000006044820152606401610842565b6001600160a01b0382166124045760405162461bcd60e51b815260206004820152602160248201527f45524332303a206275726e2066726f6d20746865207a65726f2061646472657360448201527f73000000000000000000000000000000000000000000000000000000000000006064820152608401610842565b612410826000836134cb565b6001600160a01b0382166000908152602081905260409020548181101561249f5760405162461bcd60e51b815260206004820152602260248201527f45524332303a206275726e20616d6f756e7420657863656564732062616c616e60448201527f63650000000000000000000000000000000000000000000000000000000000006064820152608401610842565b6001600160a01b03831660009081526020819052604081208383039055600280548492906124ce9084906141f0565b90915550506040518281526000906001600160a01b038516907fddf252ad1be2c89b69c2b068fc378daa952ba7f163c4a11628f55a4df523b3ef9060200160405180910390a3505050565b6040516001600160a01b0383166024820152604481018290526113b29084907fa9059cbb00000000000000000000000000000000000000000000000000000000906064015b60408051601f198184030181529190526020810180516001600160e01b03166001600160e01b031990931692909217909152613513565b6000610ce3825490565b6000610f4183836135f8565b6001600160a01b0383166126265760405162461bcd60e51b8152602060048201526024808201527f45524332303a20617070726f76652066726f6d20746865207a65726f2061646460448201527f72657373000000000000000000000000000000000000000000000000000000006064820152608401610842565b6001600160a01b0382166126a25760405162461bcd60e51b815260206004820152602260248201527f45524332303a20617070726f766520746f20746865207a65726f20616464726560448201527f73730000000000000000000000000000000000000000000000000000000000006064820152608401610842565b6001600160a01b0383811660008181526001602090815260408083209487168084529482529182902085905590518481527f8c5be1e5ebec7d5bd14f71427d1e84f3dd0314c0f7b2291e5b200ac8c7c3b925910160405180910390a3505050565b6009546001600160a01b0361010090910416331461147b5760405162461bcd60e51b815260206004820181905260248201527f4f776e61626c653a2063616c6c6572206973206e6f7420746865206f776e65726044820152606401610842565b6000601a5460000361277757506000919050565b601a5461278c670de0b6b3a764000084614265565b610ce39190614284565b60008073__$71c07f590235b604fcd656680c29ae2e3e$__637eead7af601c54600b600c0160009054906101000a90046001600160a01b03166001600160a01b031663313ce5676040518163ffffffff1660e01b8152600401602060405180830381865afa15801561280c573d6000803e3d6000fd5b505050506040513d601f19601f8201168201806040525081019061283091906142a6565b6040516001600160e01b031960e085901b168152600481019290925260ff166024820152604401602060405180830381865af4158015612874573d6000803e3d6000fd5b505050506040513d601f19601f8201168201806040525081019061289891906141c1565b905060006128a560025490565b90506000816128bc670de0b6b3a764000085614265565b6128c69190614284565b9050610f416040518060600160405280603d8152602001614736603d9139848484613622565b6001600160a01b038381166000908152600160209081526040808320938616835292905220546000198114612978578181101561296b5760405162461bcd60e51b815260206004820152601d60248201527f45524332303a20696e73756666696369656e7420616c6c6f77616e63650000006044820152606401610842565b61297884848484036125ab565b50505050565b6001600160a01b0383166129fa5760405162461bcd60e51b815260206004820152602560248201527f45524332303a207472616e736665722066726f6d20746865207a65726f20616460448201527f64726573730000000000000000000000000000000000000000000000000000006064820152608401610842565b6001600160a01b038216612a765760405162461bcd60e51b815260206004820152602360248201527f45524332303a207472616e7366657220746f20746865207a65726f206164647260448201527f65737300000000000000000000000000000000000000000000000000000000006064820152608401610842565b612a818383836134cb565b6001600160a01b03831660009081526020819052604090205481811015612b105760405162461bcd60e51b815260206004820152602660248201527f45524332303a207472616e7366657220616d6f756e742065786365656473206260448201527f616c616e636500000000000000000000000000000000000000000000000000006064820152608401610842565b6001600160a01b03808516600090815260208190526040808220858503905591851681529081208054849290612b47908490614394565b92505081905550826001600160a01b0316846001600160a01b03167fddf252ad1be2c89b69c2b068fc378daa952ba7f163c4a11628f55a4df523b3ef84604051612b9391815260200190565b60405180910390a3612978565b61297884848484604051602401612bba9493929190614478565b60408051601f198184030181529190526020810180516001600160e01b03167fdaa394bd00000000000000000000000000000000000000000000000000000000179052613680565b60606000610f41836136a1565b6040517f258022be00000000000000000000000000000000000000000000000000000000815273__$71c07f590235b604fcd656680c29ae2e3e$__9063258022be90612cac907f0000000000000000000000000000000000000000000000000000000000000000907f0000000000000000000000000000000000000000000000000000000000000000903090600b908b908b908a906004016144b0565b60006040518083038186803b158015612cc457600080fd5b505af4158015612cd8573d6000803e3d6000fd5b505050508260400135601a6000828254612cf29190614394565b9091555060009050612d02610e08565b600c54909150811015612d4f57600b546040517f6a3726a6000000000000000000000000000000000000000000000000000000008152600481019190915260248101829052604401610842565b6000601f81612d616020880188613d44565b6001600160a01b03166001600160a01b0316815260200190815260200160002090508460400135816004016000828254612d9b9190614394565b92505081905550600080600073__$71c07f590235b604fcd656680c29ae2e3e$__63a650fca27f00000000000000000000000000000000000000000000000000000000000000006020600b888d8d601c548d6040518963ffffffff1660e01b8152600401612e10989796959493929190614501565b606060405180830381865af4158015612e2d573d6000803e3d6000fd5b505050506040513d601f19601f82011682018060405250810190612e519190614443565b9250925092508160196000828254612e699190614394565b9091555050601754612e86906001600160a01b03163330856133cc565b600062015180612ea2670de0b6b3a764000060608c0135614265565b612eac9190614284565b9050612ed260405180608001604052806044815260200161467660449139828589613622565b600c54600d54600e54601054600093849373__$899d9d6bad8be265c185445c5ad67b36d3$__9363e6d42332938b9389938f9391929091908c612f16576000612f1a565b6011545b6040516001600160e01b031960e08b901b1681526004810198909852602488019690965260448701949094526064860192909252608485015260a484015260c483015260e4820152610104016040805180830381865af4158015612f82573d6000803e3d6000fd5b505050506040513d601f19601f82011682018060405250810190612fa69190614557565b91509150601d6040518060e00160405280336001600160a01b031681526020018781526020018e81526020018481526020018381526020018d803603810190612fef919061457b565b8152600060209182018190528354600180820186559482528282208451600a9092020180547fffffffffffffffffffffffff00000000000000000000000000000000000000009081166001600160a01b039384161782558585015182880155604080870151600284015560608088015160038501556080880151600485015560a08801518051600586018054909516961695909517909255948301516006830155938201516007820155920151600883015560c0909201516009909101805460ff1916911515919091179055601d5490916130c9916141f0565b90506130d860028901826136fd565b5033600090815260208052604090206130f490600101826136fd565b5061310260208d018d613d44565b6001600160a01b0316336001600160a01b03167fa1caba86bec66ddc36f652014ac1a272715cfc216ff4e2e67d5d24b84d7c0ba08e6040013589604051613153929190918252602082015260400190565b60405180910390a350505050505050505050505050565b613172613709565b6009805460ff191690557f5db9ee0a495bf2e6ff9c91a7834c1ba4fdd244a5e8aa4e537bd38aeae4b073aa335b6040516001600160a01b03909116815260200160405180910390a1565b6000806000841161320f5760405162461bcd60e51b815260206004820152601660248201527f4552433230536e617073686f743a2069642069732030000000000000000000006044820152606401610842565b61321761375b565b8411156132665760405162461bcd60e51b815260206004820152601d60248201527f4552433230536e617073686f743a206e6f6e6578697374656e742069640000006044820152606401610842565b60006132728486613766565b8454909150810361328a5760008092509250506132b2565b60018460010182815481106132a1576132a1614207565b906000526020600020015492509250505b9250929050565b6113b28383836040516024016132d1939291906145ea565b60408051601f198184030181529190526020810180516001600160e01b03167f969cdd0300000000000000000000000000000000000000000000000000000000179052613680565b6000613329600880546001019055565b600061333361375b565b90507f8030e83b04d87bef53480e26263266d6ca66863aa8506aca6f2559d18aa1cb678160405161336691815260200190565b60405180910390a1919050565b61337b612335565b613385828261382b565b816001600160a01b03167f30385c845b448a36257a6a1716e6ad2e1bc2cbe333cde1e69fe849ad6511adfe826040516133c091815260200190565b60405180910390a25050565b6040516001600160a01b03808516602483015283166044820152606481018290526129789085907f23b872dd000000000000000000000000000000000000000000000000000000009060840161255e565b600980546001600160a01b038381166101008181027fffffffffffffffffffffff0000000000000000000000000000000000000000ff85161790945560405193909204169182907f8be0079c531659141344cd1fd0a4f28419497f9722a3daafe3b4186f6b6457e090600090a35050565b613496612335565b6009805460ff191660011790557f62e78cea01bee320cd4e420270b5ea74000d11b0c9f74754ebdbfc544b05a25861319f3390565b6001600160a01b0383166134ea576134e282613916565b6113b2613948565b6001600160a01b038216613501576134e283613916565b61350a83613916565b6113b282613916565b6000613568826040518060400160405280602081526020017f5361666545524332303a206c6f772d6c6576656c2063616c6c206661696c6564815250856001600160a01b03166139569092919063ffffffff16565b8051909150156113b25780806020019051810190613586919061460f565b6113b25760405162461bcd60e51b815260206004820152602a60248201527f5361666545524332303a204552433230206f7065726174696f6e20646964206e60448201527f6f742073756363656564000000000000000000000000000000000000000000006064820152608401610842565b600082600001828154811061360f5761360f614207565b9060005260206000200154905092915050565b6129788484848460405160240161363c949392919061462a565b60408051601f198184030181529190526020810180516001600160e01b03167f08ee5666000000000000000000000000000000000000000000000000000000001790525b80516a636f6e736f6c652e6c6f67602083016000808483855afa5050505050565b6060816000018054806020026020016040519081016040528092919081815260200182805480156136f157602002820191906000526020600020905b8154815260200190600101908083116136dd575b50505050509050919050565b6000610f418383613965565b60095460ff1661147b5760405162461bcd60e51b815260206004820152601460248201527f5061757361626c653a206e6f74207061757365640000000000000000000000006044820152606401610842565b6000610e1560085490565b8154600090810361377957506000610ce3565b82546000905b808210156137d557600061379383836139b4565b9050848682815481106137a8576137a8614207565b906000526020600020015411156137c1578091506137cf565b6137cc816001614394565b92505b5061377f565b60008211801561380a575083856137ed6001856141f0565b815481106137fd576137fd614207565b9060005260206000200154145b156138235761381a6001836141f0565b92505050610ce3565b509050610ce3565b6001600160a01b0382166138815760405162461bcd60e51b815260206004820152601f60248201527f45524332303a206d696e7420746f20746865207a65726f2061646472657373006044820152606401610842565b61388d600083836134cb565b806002600082825461389f9190614394565b90915550506001600160a01b038216600090815260208190526040812080548392906138cc908490614394565b90915550506040518181526001600160a01b038316906000907fddf252ad1be2c89b69c2b068fc378daa952ba7f163c4a11628f55a4df523b3ef9060200160405180910390a35050565b6001600160a01b0381166000908152600560209081526040808320918390529091205461233291906139cf565b6139cf565b61147b600661394360025490565b6060611e788484600085613a19565b60008181526001830160205260408120546139ac57508154600181810184556000848152602080822090930184905584548482528286019093526040902091909155610ce3565b506000610ce3565b60006139c36002848418614284565b610f4190848416614394565b60006139d961375b565b9050806139e584613b61565b10156113b2578254600180820185556000858152602080822090930193909355938401805494850181558252902090910155565b606082471015613a915760405162461bcd60e51b815260206004820152602660248201527f416464726573733a20696e73756666696369656e742062616c616e636520666f60448201527f722063616c6c00000000000000000000000000000000000000000000000000006064820152608401610842565b6001600160a01b0385163b613ae85760405162461bcd60e51b815260206004820152601d60248201527f416464726573733a2063616c6c20746f206e6f6e2d636f6e74726163740000006044820152606401610842565b600080866001600160a01b03168587604051613b049190614659565b60006040518083038185875af1925050503d8060008114613b41576040519150601f19603f3d011682016040523d82523d6000602084013e613b46565b606091505b5091509150613b56828286613bab565b979650505050505050565b80546000908103613b7457506000919050565b81548290613b84906001906141f0565b81548110613b9457613b94614207565b90600052602060002001549050919050565b919050565b60608315613bba575081610f41565b825115613bca5782518084602001fd5b8160405162461bcd60e51b81526004016108429190613e6b565b6040518060e0016040528060006001600160a01b0316815260200160008152602001600081526020016000815260200160008152602001613c4f604051806080016040528060006001600160a01b031681526020016000815260200160008152602001600081525090565b8152600060209091015290565b6040518060a0016040528060008152602001613c76613c91565b81526000602082018190526040820181905260609091015290565b6040518061014001604052806000815260200160008152602001600081526020016000815260200160008152602001600081526020016000815260200160008152602001613cf2604051806040016040528060008152602001600081525090565b8152602001600081525090565b6001600160a01b038116811461233257600080fd5b60008060408385031215613d2757600080fd5b823591506020830135613d3981613cff565b809150509250929050565b600060208284031215613d5657600080fd5b8135610f4181613cff565b602080825282518282018190526000919060409081850190868401855b82811015613e0657815180516001600160a01b03908116865287820151888701528682015187870152606080830151818801526080808401519088015260a0808401518051909316908801528189015160c0808901919091528289015160e0890152910151610100870152015115156101208501526101409093019290850190600101613d7e565b5091979650505050505050565b60005b83811015613e2e578181015183820152602001613e16565b838111156129785750506000910152565b60008151808452613e57816020860160208601613e13565b601f01601f19169290920160200192915050565b602081526000610f416020830184613e3f565b60008060408385031215613e9157600080fd5b8235613e9c81613cff565b946020939093013593505050565b634e487b7160e01b600052602160045260246000fd5b60038110613ede57634e487b7160e01b600052602160045260246000fd5b9052565b60208101610ce38284613ec0565b600060208284031215613f0257600080fd5b5035919050565b600080600060608486031215613f1e57600080fd5b8335613f2981613cff565b92506020840135613f3981613cff565b929592945050506040919091013590565b634e487b7160e01b600052604160045260246000fd5b604051601f8201601f1916810167ffffffffffffffff81118282101715613f8957613f89613f4a565b604052919050565b600067ffffffffffffffff821115613fab57613fab613f4a565b5060051b60200190565b60006020808385031215613fc857600080fd5b823567ffffffffffffffff811115613fdf57600080fd5b8301601f81018513613ff057600080fd5b8035614003613ffe82613f91565b613f60565b81815260059190911b8201830190838101908783111561402257600080fd5b928401925b82841015613b5657833561403a81613cff565b82529284019290840190614027565b60006080828403121561405b57600080fd5b50919050565b60008060a0838503121561407457600080fd5b61407e8484614049565b946080939093013593505050565b60006101e08201905082518252602083015180516020840152602081015160408401526040810151606084015260608101516080840152608081015160a084015260a081015160c084015260c081015160e084015260e081015161010081818601528083015191505061012061410e8186018380518252602090810151910152565b91909101516101608401525060408301516001600160a01b039081166101808401526060840151166101a0830152608083015161414f6101c0840182613ec0565b5092915050565b60006080828403121561416857600080fd5b610f418383614049565b6000806040838503121561418557600080fd5b823561419081613cff565b91506020830135613d3981613cff565b6000602082840312156141b257600080fd5b815160038110610f4157600080fd5b6000602082840312156141d357600080fd5b5051919050565b634e487b7160e01b600052601160045260246000fd5b600082821015614202576142026141da565b500390565b634e487b7160e01b600052603260045260246000fd5b600181811c9082168061423157607f821691505b60208210810361405b57634e487b7160e01b600052602260045260246000fd5b82815260408101610f416020830184613ec0565b600081600019048311821515161561427f5761427f6141da565b500290565b6000826142a157634e487b7160e01b600052601260045260246000fd5b500490565b6000602082840312156142b857600080fd5b815160ff81168114610f4157600080fd5b600060208083850312156142dc57600080fd5b825167ffffffffffffffff8111156142f357600080fd5b8301601f8101851361430457600080fd5b8051614312613ffe82613f91565b81815260059190911b8201830190838101908783111561433157600080fd5b928401925b82841015613b5657835161434981613cff565b82529284019290840190614336565b80518015158114613ba657600080fd5b6000806040838503121561437b57600080fd5b8251915061438b60208401614358565b90509250929050565b600082198211156143a7576143a76141da565b500190565b80356143b781613cff565b6001600160a01b031682526020818101359083015260408082013590830152606090810135910152565b8481526020810184905260e081016143fc60408301856143ac565b8260c083015295945050505050565b6001600160a01b038616815260208101859052610100810161443060408301866143ac565b60c082019390935260e001529392505050565b60008060006060848603121561445857600080fd5b835192506020840151915061446f60408501614358565b90509250925092565b60808152600061448b6080830187613e3f565b6001600160a01b03959095166020830152506040810192909252606090910152919050565b6001600160a01b038881168252878116602083015286166040820152606081018590526080810184905261014081016144ec60a08301856143ac565b82151561012083015298975050505050505050565b6000610160820190506001600160a01b038a16825288602083015287604083015286606083015261453560808301876143ac565b8461010083015283610120830152826101408301529998505050505050505050565b6000806040838503121561456a57600080fd5b505080516020909101519092909150565b60006080828403121561458d57600080fd5b6040516080810181811067ffffffffffffffff821117156145b0576145b0613f4a565b60405282356145be81613cff565b808252506020830135602082015260408301356040820152606083013560608201528091505092915050565b6060815260006145fd6060830186613e3f565b60208301949094525060400152919050565b60006020828403121561462157600080fd5b610f4182614358565b60808152600061463d6080830187613e3f565b6020830195909552506040810192909252606090910152919050565b6000825161466b818460208701613e13565b919091019291505056fe70726f74656374696f6e4475726174696f6e496e446179733a2025732c2070726f74656374696f6e5072656d69756d3a2025732c206c65766572616765526174696f3a206c656e64696e67506f6f6c3a2025732c206c6173745072656d69756d4163637275616c54696d657374616d703a2025732c206c61746573745061796d656e7454696d657374616d703a202573546f74616c2073546f6b656e20756e6465726c79696e673a2025732c20636c61696d61626c65416d6f756e743a202573546f74616c206361706974616c3a2025732c20546f74616c2053546f6b656e20537570706c793a2025732c2065786368616e676520726174653a202573a2646970667358221220b3402b6fd8a97395a5ef623f3c2263de012e7af34a683b128be955a4e43d89a864736f6c634300080d0033a26469706673582212206d156aae47b5e14a401594461b26711fe815eaefb37b57102ff42bf0f4dcba0864736f6c634300080d003360a060405234801561001057600080fd5b50336080526080516106ff6100376000396000818161016201526102e001526106ff6000f3fe608060405234801561001057600080fd5b50600436106100885760003560e01c80639a63b96b1161005b5780639a63b96b1461013d578063a32cf5361461015d578063af835b8a146101a9578063d33cebae146101c957600080fd5b80631a0015931461008d5780632e1bc98f146100b657806353cf7d6a146100cb5780636bbd9d471461011c575b600080fd5b6100a061009b36600461055d565b6101ef565b6040516100ad91906105ae565b60405180910390f35b6100c96100c43660046105c2565b6102c8565b005b61010b6100d936600461055d565b600060208190529081526040902080546001820154600283015460038401546004909401549293919290919060ff1685565b6040516100ad9594939291906105ee565b61012f61012a36600461055d565b6103e8565b6040519081526020016100ad565b61015061014b36600461055d565b61041c565b6040516100ad9190610622565b6101847f000000000000000000000000000000000000000000000000000000000000000081565b60405173ffffffffffffffffffffffffffffffffffffffff90911681526020016100ad565b61012f6101b736600461055d565b60009081526020819052604090205490565b6100a06101d736600461055d565b60009081526020819052604090206004015460ff1690565b6000818152602081905260408120600481015460ff168281600281111561021857610218610576565b03610224579392505050565b600181600281111561023857610238610576565b0361026c5760028201546001830154610251904261067b565b11156102675760048201805460ff191660021790555b6102ba565b600281600281111561028057610280610576565b036102ba5760038201546001830154610299904261067b565b11156102ba576102ba8483846000015460016102b59190610692565b6104a7565b506004015460ff1692915050565b3373ffffffffffffffffffffffffffffffffffffffff7f0000000000000000000000000000000000000000000000000000000000000000161461033e576040517fb66368240000000000000000000000000000000000000000000000000000000081523360048201526024015b60405180910390fd5b600083815260208190526040902060018101541561038b576040517f18a088ae00000000000000000000000000000000000000000000000000000000815260048101859052602401610335565b818311156103c8576040517fafa38a3400000000000000000000000000000000000000000000000000000000815260048101839052602401610335565b60028101839055600381018290556103e2848260006104a7565b50505050565b600081815260208190526040812060038101546104069060026106aa565b81600101546104159190610692565b9392505050565b61042461051e565b6000808381526020019081526020016000206040518060a0016040529081600082015481526020016001820154815260200160028201548152602001600382015481526020016004820160009054906101000a900460ff16600281111561048d5761048d610576565b600281111561049e5761049e610576565b90525092915050565b80825542600180840182905560048401805460ff191690911790556002830154600384015460408051878152602081018690528082019490945260608401929092526080830152517ffabfcfe97bea6b27649c6952bde9cd1b6acf24c6de4348595a56f4a8c738caba9181900360a00190a1505050565b6040518060a00160405280600081526020016000815260200160008152602001600081526020016000600281111561055857610558610576565b905290565b60006020828403121561056f57600080fd5b5035919050565b634e487b7160e01b600052602160045260246000fd5b600381106105aa57634e487b7160e01b600052602160045260246000fd5b9052565b602081016105bc828461058c565b92915050565b6000806000606084860312156105d757600080fd5b505081359360208301359350604090920135919050565b600060a082019050868252856020830152846040830152836060830152610618608083018461058c565b9695505050505050565b600060a08201905082518252602083015160208301526040830151604083015260608301516060830152608083015161065e608084018261058c565b5092915050565b634e487b7160e01b600052601160045260246000fd5b60008282101561068d5761068d610665565b500390565b600082198211156106a5576106a5610665565b500190565b60008160001904831182151516156106c4576106c4610665565b50029056fea26469706673582212209fa87e1e42e8682a7145088080e34ea3b02bb847cdc88602af78c9acea0ab18664736f6c634300080d003360a060405234801561001057600080fd5b50336080526000805460010181558052608051611c0d61003b60003960006105c70152611c0d6000f3fe608060405234801561001057600080fd5b50600436106100885760003560e01c8063abd908461161005b578063abd90846146100f9578063de973da61461010e578063e6c25c3814610121578063fad185951461012957600080fd5b80632df275f01461008d578063468d0b74146100b3578063779b2a69146100d357806396d61242146100e6575b600080fd5b6100a061009b366004611444565b610149565b6040519081526020015b60405180910390f35b6100c66100c1366004611444565b6102cc565b6040516100aa919061147d565b6100a06100e13660046114d8565b61039d565b6100a06100f43660046114d8565b610577565b61010c6101073660046114d8565b6105bc565b005b61010c61011c3660046114fc565b610782565b61010c610822565b61013c610137366004611444565b610885565b6040516100aa9190611587565b6001600160a01b0382166000908152600160205260408120548154829182918110610176576101766115af565b906000526020600020906005020190506000816001015411156102c557805460408051630c048d9160e31b815290516000926001600160a01b0316916360246c88916004808301926101e09291908290030181865afa1580156101dd573d6000803e3d6000fd5b505050506040513d601f19601f8201168201806040525081019061020191906116c7565b606001516001600160a01b0316637e54404b6040518163ffffffff1660e01b8152600401600060405180830381865afa158015610242573d6000803e3d6000fd5b505050506040513d6000823e601f3d908101601f1916820160405261026a919081019061184e565b805190915060005b818110156102c157600083828151811061028e5761028e6115af565b6020026020010151905060006102a586838a6108e5565b5090506102b28188611899565b96508260010192505050610272565b5050505b5092915050565b6001600160a01b038216600090815260016020526040812054815460609291829181106102fb576102fb6115af565b600091825260208083206001600160a01b03871684526003600590930201918201815260408084208054825181850281018501909352808352939550909390929184015b828210156103905760008481526020908190206040805160608101825260038602909201805483526001808201548486015260029091015460ff16151591830191909152908352909201910161033f565b5050505091505092915050565b3360009081526001602052604081205481548291829181106103c1576103c16115af565b906000526020600020906005020190508060010154600003610416576040517f9e51bd5c0000000000000000000000000000000000000000000000000000000081523360048201526024015b60405180910390fd5b805460408051630c048d9160e31b815290516000926001600160a01b0316916360246c88916004808301926101e09291908290030181865afa158015610460573d6000803e3d6000fd5b505050506040513d601f19601f8201168201806040525081019061048491906116c7565b606001516001600160a01b0316637e54404b6040518163ffffffff1660e01b8152600401600060405180830381865afa1580156104c5573d6000803e3d6000fd5b505050506040513d6000823e601f3d908101601f191682016040526104ed919081019061184e565b805190915060005b8181101561056e576000838281518110610511576105116115af565b6020026020010151905060008061052987848b6108e5565b90925090506105388289611899565b6001600160a01b0393841660009081526004890160209081526040808320968d16835295905293909320555094506001016104f5565b50505050919050565b6001600160a01b038116600090815260016020526040812054815482919081106105a3576105a36115af565b9060005260206000209060050201600101549050919050565b336001600160a01b037f00000000000000000000000000000000000000000000000000000000000000001614610620576040517fb663682400000000000000000000000000000000000000000000000000000000815233600482015260240161040d565b600080546001600160a01b038316825260016020526040822054839290819083811061064e5761064e6115af565b906000526020600020906005020190506000816001015411156106a8576040517fdb771c800000000000000000000000000000000000000000000000000000000081526001600160a01b038416600482015260240161040d565b60008054600101808255818052859190849081106106c8576106c86115af565b6000918252602080832060059290920290910180547fffffffffffffffffffffffff0000000000000000000000000000000000000000166001600160a01b0394851617905591851681526001909152604081208390558054610748919084908110610735576107356115af565b9060005260206000209060050201610be0565b6040516001600160a01b038416907f9cc152f4650ca2829a210a21551537f4cc4d48c2611ec06974f835e911921b9090600090a250505050565b8060005b8181101561081c57600080600160008787868181106107a7576107a76115af565b90506020020160208101906107bc91906114d8565b6001600160a01b03166001600160a01b0316815260200190815260200160002054815481106107ed576107ed6115af565b906000526020600020906005020190506000816001015411156108135761081381610be0565b50600101610786565b50505050565b60005460015b8181101561084e5761084660008281548110610735576107356115af565b600101610828565b506040514281527f3331bd6d3c9d9ac09f9da1af1b502a79e41706a036ea79feaa649a6d9357f95b9060200160405180910390a150565b6001600160a01b038216600090815260016020526040812054815482919081106108b1576108b16115af565b600091825260208083206001600160a01b03861684526002600590930201919091019052604090205460ff16905092915050565b6001600160a01b0380831660008181526004860160209081526040808320948616835293815283822054928252600387019052918220805483929190835b81811015610bd457600083828154811061093f5761093f6115af565b90600052602060002090600302019050600081600001549050610989604051806060016040528060218152602001611b5c602191396002840154600185015460ff90911690610f50565b600282015460ff1615801561099d57508581115b15610bca578a54604080516060810190915260378082526001600160a01b0390921691610aad9190611b7d602083013960405163277166bf60e11b81526001600160a01b038d8116600483015260248201869052841690634ee2cd7e90604401602060405180830381865afa158015610a1a573d6000803e3d6000fd5b505050506040513d601f19601f82011682018060405250810190610a3e91906118b1565b604051630981b24d60e41b8152600481018690526001600160a01b0385169063981b24d090602401602060405180830381865afa158015610a83573d6000803e3d6000fd5b505050506040513d601f19601f82011682018060405250810190610aa791906118b1565b85610fb5565b604051630981b24d60e41b8152600481018390526001600160a01b0382169063981b24d090602401602060405180830381865afa158015610af2573d6000803e3d6000fd5b505050506040513d601f19601f82011682018060405250810190610b1691906118b1565b600184015460405163277166bf60e11b81526001600160a01b038d8116600483015260248201869052841690634ee2cd7e90604401602060405180830381865afa158015610b68573d6000803e3d6000fd5b505050506040513d601f19601f82011682018060405250810190610b8c91906118b1565b610b9691906118ca565b610ba091906118e9565b9850819750610bc8604051806060016040528060248152602001611bb4602491398b8b611017565b505b5050600101610923565b50505050935093915050565b426001820155805460408051630c048d9160e31b8152905160009283926001600160a01b03909116916360246c88916004808201926101e0929091908290030181865afa158015610c35573d6000803e3d6000fd5b505050506040513d601f19601f82011682018060405250810190610c5991906116c7565b606001516001600160a01b031663c3638fed6040518163ffffffff1660e01b8152600401600060405180830381865afa158015610c9a573d6000803e3d6000fd5b505050506040513d6000823e601f3d908101601f19168201604052610cc2919081019061190b565b8151919350915060005b81811015610f49576000848281518110610ce857610ce86115af565b6020908102919091018101516001600160a01b0381166000908152600289019092526040822080548751929450909260ff90911691879086908110610d2f57610d2f6115af565b60200260200101519050806005811115610d4b57610d4b611571565b826005811115610d5d57610d5d611571565b14610da857610da8604051806080016040528060458152602001611b176045913985846005811115610d9157610d91611571565b846005811115610da357610da3611571565b611077565b6001826005811115610dbc57610dbc611571565b1480610dd957506002826005811115610dd757610dd7611571565b145b8015610df657506003816005811115610df457610df4611571565b145b15610e1b57825460ff19166003178355610e1089856110d9565b426001840155610f3a565b6003826005811115610e2f57610e2f611571565b03610eb857610e3e8985611228565b8360010154610e4d9190611899565b421115610eb3576001816005811115610e6857610e68611571565b03610e8e57825460ff19166001178355610e828985611350565b60006001840155610f3a565b6003816005811115610ea257610ea2611571565b03610eb357825460ff191660041783555b610f3a565b6004826005811115610ecc57610ecc611571565b1480610ee957506005826005811115610ee757610ee7611571565b145b610f3a57806005811115610eff57610eff611571565b826005811115610f1157610f11611571565b14610f3a5782548190849060ff19166001836005811115610f3457610f34611571565b02179055505b84600101945050505050610ccc565b5050505050565b610fb0838383604051602401610f6893929190611a21565b60408051601f198184030181529190526020810180516001600160e01b03167f291bb9d0000000000000000000000000000000000000000000000000000000001790526113ba565b505050565b61081c84848484604051602401610fcf9493929190611a46565b60408051601f198184030181529190526020810180516001600160e01b03167f08ee5666000000000000000000000000000000000000000000000000000000001790526113ba565b610fb083838360405160240161102f93929190611a75565b60408051601f198184030181529190526020810180516001600160e01b03167f07c81217000000000000000000000000000000000000000000000000000000001790526113ba565b61081c848484846040516024016110919493929190611aa3565b60408051601f198184030181529190526020810180516001600160e01b03167fdaa394bd000000000000000000000000000000000000000000000000000000001790526113ba565b81546040517f6d8d96230000000000000000000000000000000000000000000000000000000081526001600160a01b0383811660048301529091169060009081908390636d8d96239060240160408051808303816000875af1158015611143573d6000803e3d6000fd5b505050506040513d601f19601f820116820180604052508101906111679190611adb565b6001600160a01b0380871660008181526003808b016020908152604080842081516060810183528881528084018a81526001828501818152845480830186559489529590972091519290950201908155925193830193909355516002909101805491151560ff19909216919091179055519395509193508516917f02ee32173cd17171101ed2119fb6e23a0a86e94e1cfbee04f4bae06d85bca3be906112199085908790918252602082015260400190565b60405180910390a35050505050565b6000808360000160009054906101000a90046001600160a01b03166001600160a01b03166360246c886040518163ffffffff1660e01b81526004016101e060405180830381865afa158015611281573d6000803e3d6000fd5b505050506040513d601f19601f820116820180604052508101906112a591906116c7565b606001516040517f2a8bddee0000000000000000000000000000000000000000000000000000000081526001600160a01b03858116600483015290911690632a8bddee90602401602060405180830381865afa158015611309573d6000803e3d6000fd5b505050506040513d601f19601f8201168201806040525081019061132d91906118b1565b90506201518061133e8260026118ca565b61134891906118ca565b949350505050565b600061135c83836113db565b60028101805460ff19169055835460018201546040519081529192506001600160a01b0390811691908416907fca31fa59e941ad19c217d6e0f0693fbbe8d42d6a6548aa88ee8ed11577c33c809060200160405180910390a3505050565b80516a636f6e736f6c652e6c6f67602083016000808483855afa5050505050565b6001600160a01b038116600090815260038301602052604081208054819061140590600190611aff565b81548110611415576114156115af565b906000526020600020906003020191505092915050565b6001600160a01b038116811461144157600080fd5b50565b6000806040838503121561145757600080fd5b82356114628161142c565b915060208301356114728161142c565b809150509250929050565b602080825282518282018190526000919060409081850190868401855b828110156114cb5781518051855286810151878601528501511515858501526060909301929085019060010161149a565b5091979650505050505050565b6000602082840312156114ea57600080fd5b81356114f58161142c565b9392505050565b6000806020838503121561150f57600080fd5b823567ffffffffffffffff8082111561152757600080fd5b818501915085601f83011261153b57600080fd5b81358181111561154a57600080fd5b8660208260051b850101111561155f57600080fd5b60209290920196919550909350505050565b634e487b7160e01b600052602160045260246000fd5b60208101600683106115a957634e487b7160e01b600052602160045260246000fd5b91905290565b634e487b7160e01b600052603260045260246000fd5b634e487b7160e01b600052604160045260246000fd5b60405160a0810167ffffffffffffffff811182821017156115fe576115fe6115c5565b60405290565b604051610140810167ffffffffffffffff811182821017156115fe576115fe6115c5565b604051601f8201601f1916810167ffffffffffffffff81118282101715611651576116516115c5565b604052919050565b60006040828403121561166b57600080fd5b6040516040810181811067ffffffffffffffff8211171561168e5761168e6115c5565b604052825181526020928301519281019290925250919050565b80516116b38161142c565b919050565b8051600381106116b357600080fd5b60008183036101e08112156116db57600080fd5b6116e36115db565b8351815261016080601f19840112156116fb57600080fd5b611703611604565b92506020850151835260408501516020840152606085015160408401526080850151606084015260a0850151608084015260c085015160a084015260e085015160c08401526101008086015160e085015261012061176388828901611659565b82860152828701518186015250505081602082015261178561018085016116a8565b60408201526117976101a085016116a8565b60608201526117a96101c085016116b8565b6080820152949350505050565b600067ffffffffffffffff8211156117d0576117d06115c5565b5060051b60200190565b600082601f8301126117eb57600080fd5b815160206118006117fb836117b6565b611628565b82815260059290921b8401810191818101908684111561181f57600080fd5b8286015b848110156118435780516118368161142c565b8352918301918301611823565b509695505050505050565b60006020828403121561186057600080fd5b815167ffffffffffffffff81111561187757600080fd5b611348848285016117da565b634e487b7160e01b600052601160045260246000fd5b600082198211156118ac576118ac611883565b500190565b6000602082840312156118c357600080fd5b5051919050565b60008160001904831182151516156118e4576118e4611883565b500290565b60008261190657634e487b7160e01b600052601260045260246000fd5b500490565b6000806040838503121561191e57600080fd5b825167ffffffffffffffff8082111561193657600080fd5b611942868387016117da565b935060209150818501518181111561195957600080fd5b85019050601f8101861361196c57600080fd5b805161197a6117fb826117b6565b81815260059190911b8201830190838101908883111561199957600080fd5b928401925b828410156119c5578351600681106119b65760008081fd5b8252928401929084019061199e565b80955050505050509250929050565b6000815180845260005b818110156119fa576020818501810151868301820152016119de565b81811115611a0c576000602083870101525b50601f01601f19169290920160200192915050565b606081526000611a3460608301866119d4565b93151560208301525060400152919050565b608081526000611a5960808301876119d4565b6020830195909552506040810192909252606090910152919050565b606081526000611a8860608301866119d4565b6001600160a01b039490941660208301525060400152919050565b608081526000611ab660808301876119d4565b6001600160a01b03959095166020830152506040810192909252606090910152919050565b60008060408385031215611aee57600080fd5b505080516020909101519092909150565b600082821015611b1157611b11611883565b50039056fe44656661756c7453746174654d616e616765723a204c656e64696e6720706f6f6c20257320737461747573206973206368616e6765642066726f6d20257320746f202025736c6f636b65644361706974616c2e6c6f636b65643a2025732c20616d743a20257362616c616e6365206f662073656c6c65723a2025732c20746f74616c20737570706c793a20257320617420736e617073686f743a202573436c61696d61626c6520616d6f756e7420666f722073656c6c6572202573206973202573a264697066735822122037a7f7170bdc7a9d7dc7d163e2c3eb0b9146bb4822f49ccfd22f8493c4aecf1f64736f6c634300080d0033",
  "linkReferences": {
    "contracts/libraries/AccruedPremiumCalculator.sol": {
      "AccruedPremiumCalculator": [
        {
          "length": 20,
          "start": 17078
        }
      ]
    },
    "contracts/libraries/PoolHelper.sol": {
      "PoolHelper": [
        {
          "length": 20,
          "start": 8727
        },
        {
          "length": 20,
          "start": 9592
        },
        {
          "length": 20,
          "start": 9852
        },
        {
          "length": 20,
          "start": 12466
        },
        {
          "length": 20,
          "start": 12650
        },
        {
          "length": 20,
          "start": 13629
        },
        {
          "length": 20,
          "start": 15212
        },
        {
          "length": 20,
          "start": 16392
        },
        {
          "length": 20,
          "start": 16762
        }
      ]
    }
  },
  "deployedLinkReferences": {
    "contracts/libraries/AccruedPremiumCalculator.sol": {
      "AccruedPremiumCalculator": [
        {
          "length": 20,
          "start": 16738
        }
      ]
    },
    "contracts/libraries/PoolHelper.sol": {
      "PoolHelper": [
        {
          "length": 20,
          "start": 8387
        },
        {
          "length": 20,
          "start": 9252
        },
        {
          "length": 20,
          "start": 9512
        },
        {
          "length": 20,
          "start": 12126
        },
        {
          "length": 20,
          "start": 12310
        },
        {
          "length": 20,
          "start": 13289
        },
        {
          "length": 20,
          "start": 14872
        },
        {
          "length": 20,
          "start": 16052
        },
        {
          "length": 20,
          "start": 16422
        }
      ]
    }
  }
}